{
  "contractName": "ERC1155",
  "abi": [
    {
      "inputs": [],
      "payable": false,
      "stateMutability": "nonpayable",
      "type": "constructor"
    },
    {
      "anonymous": false,
      "inputs": [
        {
          "indexed": true,
          "internalType": "address",
          "name": "owner",
          "type": "address"
        },
        {
          "indexed": true,
          "internalType": "address",
          "name": "operator",
          "type": "address"
        },
        {
          "indexed": false,
          "internalType": "bool",
          "name": "approved",
          "type": "bool"
        }
      ],
      "name": "ApprovalForAll",
      "type": "event"
    },
    {
      "anonymous": false,
      "inputs": [
        {
          "indexed": true,
          "internalType": "address",
          "name": "operator",
          "type": "address"
        },
        {
          "indexed": true,
          "internalType": "address",
          "name": "from",
          "type": "address"
        },
        {
          "indexed": true,
          "internalType": "address",
          "name": "to",
          "type": "address"
        },
        {
          "indexed": false,
          "internalType": "uint256[]",
          "name": "ids",
          "type": "uint256[]"
        },
        {
          "indexed": false,
          "internalType": "uint256[]",
          "name": "values",
          "type": "uint256[]"
        }
      ],
      "name": "TransferBatch",
      "type": "event"
    },
    {
      "anonymous": false,
      "inputs": [
        {
          "indexed": true,
          "internalType": "address",
          "name": "operator",
          "type": "address"
        },
        {
          "indexed": true,
          "internalType": "address",
          "name": "from",
          "type": "address"
        },
        {
          "indexed": true,
          "internalType": "address",
          "name": "to",
          "type": "address"
        },
        {
          "indexed": false,
          "internalType": "uint256",
          "name": "id",
          "type": "uint256"
        },
        {
          "indexed": false,
          "internalType": "uint256",
          "name": "value",
          "type": "uint256"
        }
      ],
      "name": "TransferSingle",
      "type": "event"
    },
    {
      "anonymous": false,
      "inputs": [
        {
          "indexed": false,
          "internalType": "string",
          "name": "value",
          "type": "string"
        },
        {
          "indexed": true,
          "internalType": "uint256",
          "name": "id",
          "type": "uint256"
        }
      ],
      "name": "URI",
      "type": "event"
    },
    {
      "constant": true,
      "inputs": [
        {
          "internalType": "bytes4",
          "name": "interfaceId",
          "type": "bytes4"
        }
      ],
      "name": "supportsInterface",
      "outputs": [
        {
          "internalType": "bool",
          "name": "",
          "type": "bool"
        }
      ],
      "payable": false,
      "stateMutability": "view",
      "type": "function"
    },
    {
      "constant": true,
      "inputs": [
        {
          "internalType": "address",
          "name": "owner",
          "type": "address"
        },
        {
          "internalType": "uint256",
          "name": "id",
          "type": "uint256"
        }
      ],
      "name": "balanceOf",
      "outputs": [
        {
          "internalType": "uint256",
          "name": "",
          "type": "uint256"
        }
      ],
      "payable": false,
      "stateMutability": "view",
      "type": "function"
    },
    {
      "constant": true,
      "inputs": [
        {
          "internalType": "address[]",
          "name": "owners",
          "type": "address[]"
        },
        {
          "internalType": "uint256[]",
          "name": "ids",
          "type": "uint256[]"
        }
      ],
      "name": "balanceOfBatch",
      "outputs": [
        {
          "internalType": "uint256[]",
          "name": "",
          "type": "uint256[]"
        }
      ],
      "payable": false,
      "stateMutability": "view",
      "type": "function"
    },
    {
      "constant": false,
      "inputs": [
        {
          "internalType": "address",
          "name": "operator",
          "type": "address"
        },
        {
          "internalType": "bool",
          "name": "approved",
          "type": "bool"
        }
      ],
      "name": "setApprovalForAll",
      "outputs": [],
      "payable": false,
      "stateMutability": "nonpayable",
      "type": "function"
    },
    {
      "constant": true,
      "inputs": [
        {
          "internalType": "address",
          "name": "owner",
          "type": "address"
        },
        {
          "internalType": "address",
          "name": "operator",
          "type": "address"
        }
      ],
      "name": "isApprovedForAll",
      "outputs": [
        {
          "internalType": "bool",
          "name": "",
          "type": "bool"
        }
      ],
      "payable": false,
      "stateMutability": "view",
      "type": "function"
    },
    {
      "constant": false,
      "inputs": [
        {
          "internalType": "address",
          "name": "from",
          "type": "address"
        },
        {
          "internalType": "address",
          "name": "to",
          "type": "address"
        },
        {
          "internalType": "uint256",
          "name": "id",
          "type": "uint256"
        },
        {
          "internalType": "uint256",
          "name": "value",
          "type": "uint256"
        },
        {
          "internalType": "bytes",
          "name": "data",
          "type": "bytes"
        }
      ],
      "name": "safeTransferFrom",
      "outputs": [],
      "payable": false,
      "stateMutability": "nonpayable",
      "type": "function"
    },
    {
      "constant": false,
      "inputs": [
        {
          "internalType": "address",
          "name": "from",
          "type": "address"
        },
        {
          "internalType": "address",
          "name": "to",
          "type": "address"
        },
        {
          "internalType": "uint256[]",
          "name": "ids",
          "type": "uint256[]"
        },
        {
          "internalType": "uint256[]",
          "name": "values",
          "type": "uint256[]"
        },
        {
          "internalType": "bytes",
          "name": "data",
          "type": "bytes"
        }
      ],
      "name": "safeBatchTransferFrom",
      "outputs": [],
      "payable": false,
      "stateMutability": "nonpayable",
      "type": "function"
    }
  ],
  "bytecode": "0x608060405234801561001057600080fd5b506100276301ffc9a760e01b61010a60201b60201c565b610105600073ffffffffffffffffffffffffffffffffffffffff1663e985e9c5905060e01b600073ffffffffffffffffffffffffffffffffffffffff1663a22cb465905060e01b600073ffffffffffffffffffffffffffffffffffffffff16634e1273f4905060e01b600073ffffffffffffffffffffffffffffffffffffffff1662fdd58e905060e01b600073ffffffffffffffffffffffffffffffffffffffff16632eb2c2d6905060e01b600073ffffffffffffffffffffffffffffffffffffffff1663f242432a905060e01b181818181861010a60201b60201c565b610212565b63ffffffff60e01b817bffffffffffffffffffffffffffffffffffffffffffffffffffffffff191614156101a6576040517f08c379a000000000000000000000000000000000000000000000000000000000815260040180806020018281038252601c8152602001807f4552433136353a20696e76616c696420696e746572666163652069640000000081525060200191505060405180910390fd5b6001600080837bffffffffffffffffffffffffffffffffffffffffffffffffffffffff19167bffffffffffffffffffffffffffffffffffffffffffffffffffffffff1916815260200190815260200160002060006101000a81548160ff02191690831515021790555050565b611bff806102216000396000f3fe608060405234801561001057600080fd5b506004361061007c5760003560e01c80634e1273f41161005b5780634e1273f4146102ab578063a22cb4651461044c578063e985e9c51461049c578063f242432a146105185761007c565b8062fdd58e1461008157806301ffc9a7146100e35780632eb2c2d614610148575b600080fd5b6100cd6004803603604081101561009757600080fd5b81019080803573ffffffffffffffffffffffffffffffffffffffff169060200190929190803590602001909291905050506105e5565b6040518082815260200191505060405180910390f35b61012e600480360360208110156100f957600080fd5b8101908080357bffffffffffffffffffffffffffffffffffffffffffffffffffffffff191690602001909291905050506106c5565b604051808215151515815260200191505060405180910390f35b6102a9600480360360a081101561015e57600080fd5b81019080803573ffffffffffffffffffffffffffffffffffffffff169060200190929190803573ffffffffffffffffffffffffffffffffffffffff169060200190929190803590602001906401000000008111156101bb57600080fd5b8201836020820111156101cd57600080fd5b803590602001918460208302840111640100000000831117156101ef57600080fd5b90919293919293908035906020019064010000000081111561021057600080fd5b82018360208201111561022257600080fd5b8035906020019184602083028401116401000000008311171561024457600080fd5b90919293919293908035906020019064010000000081111561026557600080fd5b82018360208201111561027757600080fd5b8035906020019184600183028401116401000000008311171561029957600080fd5b909192939192939050505061072c565b005b6103f5600480360360408110156102c157600080fd5b81019080803590602001906401000000008111156102de57600080fd5b8201836020820111156102f057600080fd5b8035906020019184602083028401116401000000008311171561031257600080fd5b919080806020026020016040519081016040528093929190818152602001838360200280828437600081840152601f19601f8201169050808301925050505050505091929192908035906020019064010000000081111561037257600080fd5b82018360208201111561038457600080fd5b803590602001918460208302840111640100000000831117156103a657600080fd5b919080806020026020016040519081016040528093929190818152602001838360200280828437600081840152601f19601f820116905080830192505050505050509192919290505050610ca7565b6040518080602001828103825283818151815260200191508051906020019060200280838360005b8381101561043857808201518184015260208101905061041d565b505050509050019250505060405180910390f35b61049a6004803603604081101561046257600080fd5b81019080803573ffffffffffffffffffffffffffffffffffffffff169060200190929190803515159060200190929190505050610e85565b005b6104fe600480360360408110156104b257600080fd5b81019080803573ffffffffffffffffffffffffffffffffffffffff169060200190929190803573ffffffffffffffffffffffffffffffffffffffff169060200190929190505050610f86565b604051808215151515815260200191505060405180910390f35b6105e3600480360360a081101561052e57600080fd5b81019080803573ffffffffffffffffffffffffffffffffffffffff169060200190929190803573ffffffffffffffffffffffffffffffffffffffff16906020019092919080359060200190929190803590602001909291908035906020019064010000000081111561059f57600080fd5b8201836020820111156105b157600080fd5b803590602001918460018302840111640100000000831117156105d357600080fd5b909192939192939050505061101a565b005b60008073ffffffffffffffffffffffffffffffffffffffff168373ffffffffffffffffffffffffffffffffffffffff16141561066c576040517f08c379a000000000000000000000000000000000000000000000000000000000815260040180806020018281038252602b815260200180611a49602b913960400191505060405180910390fd5b6001600083815260200190815260200160002060008473ffffffffffffffffffffffffffffffffffffffff1673ffffffffffffffffffffffffffffffffffffffff16815260200190815260200160002054905092915050565b6000806000837bffffffffffffffffffffffffffffffffffffffffffffffffffffffff19167bffffffffffffffffffffffffffffffffffffffffffffffffffffffff1916815260200190815260200160002060009054906101000a900460ff169050919050565b83839050868690501461078a576040517f08c379a000000000000000000000000000000000000000000000000000000000815260040180806020018281038252602e815260200180611b34602e913960400191505060405180910390fd5b600073ffffffffffffffffffffffffffffffffffffffff168773ffffffffffffffffffffffffffffffffffffffff161415610810576040517f08c379a0000000000000000000000000000000000000000000000000000000008152600401808060200182810382526028815260200180611a746028913960400191505060405180910390fd5b3373ffffffffffffffffffffffffffffffffffffffff168873ffffffffffffffffffffffffffffffffffffffff1614806108d7575060011515600260008a73ffffffffffffffffffffffffffffffffffffffff1673ffffffffffffffffffffffffffffffffffffffff16815260200190815260200160002060003373ffffffffffffffffffffffffffffffffffffffff1673ffffffffffffffffffffffffffffffffffffffff16815260200190815260200160002060009054906101000a900460ff161515145b61092c576040517f08c379a0000000000000000000000000000000000000000000000000000000008152600401808060200182810382526038815260200180611b626038913960400191505060405180910390fd5b60008090505b86869050811015610ae657600087878381811061094b57fe5b905060200201359050600086868481811061096257fe5b9050602002013590506109ce816001600085815260200190815260200160002060008e73ffffffffffffffffffffffffffffffffffffffff1673ffffffffffffffffffffffffffffffffffffffff1681526020019081526020016000205461140890919063ffffffff16565b6001600084815260200190815260200160002060008d73ffffffffffffffffffffffffffffffffffffffff1673ffffffffffffffffffffffffffffffffffffffff16815260200190815260200160002081905550610a856001600084815260200190815260200160002060008c73ffffffffffffffffffffffffffffffffffffffff1673ffffffffffffffffffffffffffffffffffffffff168152602001908152602001600020548261149190919063ffffffff16565b6001600084815260200190815260200160002060008c73ffffffffffffffffffffffffffffffffffffffff1673ffffffffffffffffffffffffffffffffffffffff168152602001908152602001600020819055505050806001019050610932565b508673ffffffffffffffffffffffffffffffffffffffff168873ffffffffffffffffffffffffffffffffffffffff163373ffffffffffffffffffffffffffffffffffffffff167f4a39dc06d4c0dbc64b70af90fd698a233a518aa5d07e595d983b8c0526c8f7fb898989896040518080602001806020018381038352878782818152602001925060200280828437600081840152601f19601f8201169050808301925050508381038252858582818152602001925060200280828437600081840152601f19601f820116905080830192505050965050505050505060405180910390a4610c9d338989898980806020026020016040519081016040528093929190818152602001838360200280828437600081840152601f19601f82011690508083019250505050505050888880806020026020016040519081016040528093929190818152602001838360200280828437600081840152601f19601f8201169050808301925050505050505087878080601f016020809104026020016040519081016040528093929190818152602001838380828437600081840152601f19601f82011690508083019250505050505050611519565b5050505050505050565b60608151835114610d03576040517f08c379a000000000000000000000000000000000000000000000000000000000815260040180806020018281038252602e815260200180611b06602e913960400191505060405180910390fd5b60608351604051908082528060200260200182016040528015610d355781602001602082028038833980820191505090505b50905060008090505b8451811015610e7a57600073ffffffffffffffffffffffffffffffffffffffff16858281518110610d6b57fe5b602002602001015173ffffffffffffffffffffffffffffffffffffffff161415610de0576040517f08c379a0000000000000000000000000000000000000000000000000000000008152600401808060200182810382526034815260200180611ad26034913960400191505060405180910390fd5b60016000858381518110610df057fe5b602002602001015181526020019081526020016000206000868381518110610e1457fe5b602002602001015173ffffffffffffffffffffffffffffffffffffffff1673ffffffffffffffffffffffffffffffffffffffff16815260200190815260200160002054828281518110610e6357fe5b602002602001018181525050806001019050610d3e565b508091505092915050565b80600260003373ffffffffffffffffffffffffffffffffffffffff1673ffffffffffffffffffffffffffffffffffffffff16815260200190815260200160002060008473ffffffffffffffffffffffffffffffffffffffff1673ffffffffffffffffffffffffffffffffffffffff16815260200190815260200160002060006101000a81548160ff0219169083151502179055508173ffffffffffffffffffffffffffffffffffffffff163373ffffffffffffffffffffffffffffffffffffffff167f17307eab39ab6107e8899845ad3d59bd9653f200f220920489ca2b5937696c3183604051808215151515815260200191505060405180910390a35050565b6000600260008473ffffffffffffffffffffffffffffffffffffffff1673ffffffffffffffffffffffffffffffffffffffff16815260200190815260200160002060008373ffffffffffffffffffffffffffffffffffffffff1673ffffffffffffffffffffffffffffffffffffffff16815260200190815260200160002060009054906101000a900460ff16905092915050565b600073ffffffffffffffffffffffffffffffffffffffff168573ffffffffffffffffffffffffffffffffffffffff1614156110a0576040517f08c379a0000000000000000000000000000000000000000000000000000000008152600401808060200182810382526028815260200180611a746028913960400191505060405180910390fd5b3373ffffffffffffffffffffffffffffffffffffffff168673ffffffffffffffffffffffffffffffffffffffff161480611167575060011515600260008873ffffffffffffffffffffffffffffffffffffffff1673ffffffffffffffffffffffffffffffffffffffff16815260200190815260200160002060003373ffffffffffffffffffffffffffffffffffffffff1673ffffffffffffffffffffffffffffffffffffffff16815260200190815260200160002060009054906101000a900460ff161515145b6111bc576040517f08c379a0000000000000000000000000000000000000000000000000000000008152600401808060200182810382526038815260200180611b626038913960400191505060405180910390fd5b61121f836001600087815260200190815260200160002060008973ffffffffffffffffffffffffffffffffffffffff1673ffffffffffffffffffffffffffffffffffffffff1681526020019081526020016000205461140890919063ffffffff16565b6001600086815260200190815260200160002060008873ffffffffffffffffffffffffffffffffffffffff1673ffffffffffffffffffffffffffffffffffffffff168152602001908152602001600020819055506112d66001600086815260200190815260200160002060008773ffffffffffffffffffffffffffffffffffffffff1673ffffffffffffffffffffffffffffffffffffffff168152602001908152602001600020548461149190919063ffffffff16565b6001600086815260200190815260200160002060008773ffffffffffffffffffffffffffffffffffffffff1673ffffffffffffffffffffffffffffffffffffffff168152602001908152602001600020819055508473ffffffffffffffffffffffffffffffffffffffff168673ffffffffffffffffffffffffffffffffffffffff163373ffffffffffffffffffffffffffffffffffffffff167fc3d58168c5ae7397731d063d5bbf3d657854427343f4c083240f7aacaa2d0f628787604051808381526020018281526020019250505060405180910390a4611400338787878787878080601f016020809104026020016040519081016040528093929190818152602001838380828437600081840152601f19601f820116905080830192505050505050506117e8565b505050505050565b600082821115611480576040517f08c379a000000000000000000000000000000000000000000000000000000000815260040180806020018281038252601e8152602001807f536166654d6174683a207375627472616374696f6e206f766572666c6f77000081525060200191505060405180910390fd5b600082840390508091505092915050565b60008082840190508381101561150f576040517f08c379a000000000000000000000000000000000000000000000000000000000815260040180806020018281038252601b8152602001807f536166654d6174683a206164646974696f6e206f766572666c6f77000000000081525060200191505060405180910390fd5b8091505092915050565b6115388473ffffffffffffffffffffffffffffffffffffffff16611a35565b156117e0578373ffffffffffffffffffffffffffffffffffffffff1663bc197c81905060e01b7bffffffffffffffffffffffffffffffffffffffffffffffffffffffff19168473ffffffffffffffffffffffffffffffffffffffff1663bc197c8188888787876040518663ffffffff1660e01b8152600401808673ffffffffffffffffffffffffffffffffffffffff1673ffffffffffffffffffffffffffffffffffffffff1681526020018573ffffffffffffffffffffffffffffffffffffffff1673ffffffffffffffffffffffffffffffffffffffff168152602001806020018060200180602001848103845287818151815260200191508051906020019060200280838360005b8381101561165c578082015181840152602081019050611641565b50505050905001848103835286818151815260200191508051906020019060200280838360005b8381101561169e578082015181840152602081019050611683565b50505050905001848103825285818151815260200191508051906020019080838360005b838110156116dd5780820151818401526020810190506116c2565b50505050905090810190601f16801561170a5780820380516001836020036101000a031916815260200191505b5098505050505050505050602060405180830381600087803b15801561172f57600080fd5b505af1158015611743573d6000803e3d6000fd5b505050506040513d602081101561175957600080fd5b81019080805190602001909291905050507bffffffffffffffffffffffffffffffffffffffffffffffffffffffff1916146117df576040517f08c379a0000000000000000000000000000000000000000000000000000000008152600401808060200182810382526036815260200180611a9c6036913960400191505060405180910390fd5b5b505050505050565b6118078473ffffffffffffffffffffffffffffffffffffffff16611a35565b15611a2d578373ffffffffffffffffffffffffffffffffffffffff1663f23a6e61905060e01b7bffffffffffffffffffffffffffffffffffffffffffffffffffffffff19168473ffffffffffffffffffffffffffffffffffffffff1663f23a6e6188888787876040518663ffffffff1660e01b8152600401808673ffffffffffffffffffffffffffffffffffffffff1673ffffffffffffffffffffffffffffffffffffffff1681526020018573ffffffffffffffffffffffffffffffffffffffff1673ffffffffffffffffffffffffffffffffffffffff16815260200184815260200183815260200180602001828103825283818151815260200191508051906020019080838360005b8381101561192c578082015181840152602081019050611911565b50505050905090810190601f1680156119595780820380516001836020036101000a031916815260200191505b509650505050505050602060405180830381600087803b15801561197c57600080fd5b505af1158015611990573d6000803e3d6000fd5b505050506040513d60208110156119a657600080fd5b81019080805190602001909291905050507bffffffffffffffffffffffffffffffffffffffffffffffffffffffff191614611a2c576040517f08c379a0000000000000000000000000000000000000000000000000000000008152600401808060200182810382526031815260200180611b9a6031913960400191505060405180910390fd5b5b505050505050565b600080823b90506000811191505091905056fe455243313135353a2062616c616e636520717565727920666f7220746865207a65726f2061646472657373455243313135353a207461726765742061646472657373206d757374206265206e6f6e2d7a65726f455243313135353a20676f7420756e6b6e6f776e2076616c75652066726f6d206f6e4552433131353542617463685265636569766564455243313135353a20736f6d65206164647265737320696e2062617463682062616c616e6365207175657279206973207a65726f455243313135353a206f776e65727320616e6420494473206d75737420686176652073616d65206c656e67746873455243313135353a2049447320616e642076616c756573206d75737420686176652073616d65206c656e67746873455243313135353a206e656564206f70657261746f7220617070726f76616c20666f7220337264207061727479207472616e73666572732e455243313135353a20676f7420756e6b6e6f776e2076616c75652066726f6d206f6e455243313135355265636569766564a265627a7a7231582026791c274a24138d04667c3a7cc0d9d99c32933078405b3bc7424df9b63fce7364736f6c63430005110032",
  "source": "pragma solidity ^0.5.0;\n\nimport \"./IERC1155.sol\";\nimport \"./IERC1155TokenReceiver.sol\";\nimport \"openzeppelin-solidity/contracts/math/SafeMath.sol\";\nimport \"openzeppelin-solidity/contracts/utils/Address.sol\";\nimport \"openzeppelin-solidity/contracts/introspection/ERC165.sol\";\n\n/**\n * @title Standard ERC1155 token\n *\n * @dev Implementation of the basic standard multi-token.\n * See https://eips.ethereum.org/EIPS/eip-1155\n * Originally based on code by Enjin: https://github.com/enjin/erc-1155\n */\ncontract ERC1155 is ERC165, IERC1155\n{\n    using SafeMath for uint256;\n    using Address for address;\n\n    // Mapping from token ID to owner balances\n    mapping (uint256 => mapping(address => uint256)) private _balances;\n\n    // Mapping from owner to operator approvals\n    mapping (address => mapping(address => bool)) private _operatorApprovals;\n\n    constructor()\n        public\n    {\n        _registerInterface(\n            ERC1155(0).safeTransferFrom.selector ^\n            ERC1155(0).safeBatchTransferFrom.selector ^\n            ERC1155(0).balanceOf.selector ^\n            ERC1155(0).balanceOfBatch.selector ^\n            ERC1155(0).setApprovalForAll.selector ^\n            ERC1155(0).isApprovedForAll.selector\n        );\n    }\n\n    /**\n        @dev Get the specified address' balance for token with specified ID.\n        @param owner The address of the token holder\n        @param id ID of the token\n        @return The owner's balance of the token type requested\n     */\n    function balanceOf(address owner, uint256 id) public view returns (uint256) {\n        require(owner != address(0), \"ERC1155: balance query for the zero address\");\n        return _balances[id][owner];\n    }\n\n    /**\n        @dev Get the balance of multiple account/token pairs\n        @param owners The addresses of the token holders\n        @param ids IDs of the tokens\n        @return Balances for each owner and token id pair\n     */\n    function balanceOfBatch(\n        address[] memory owners,\n        uint256[] memory ids\n    )\n        public\n        view\n        returns (uint256[] memory)\n    {\n        require(owners.length == ids.length, \"ERC1155: owners and IDs must have same lengths\");\n\n        uint256[] memory batchBalances = new uint256[](owners.length);\n\n        for (uint256 i = 0; i < owners.length; ++i) {\n            require(owners[i] != address(0), \"ERC1155: some address in batch balance query is zero\");\n            batchBalances[i] = _balances[ids[i]][owners[i]];\n        }\n\n        return batchBalances;\n    }\n\n    /**\n     * @dev Sets or unsets the approval of a given operator\n     * An operator is allowed to transfer all tokens of the sender on their behalf\n     * @param operator address to set the approval\n     * @param approved representing the status of the approval to be set\n     */\n    function setApprovalForAll(address operator, bool approved) external {\n        _operatorApprovals[msg.sender][operator] = approved;\n        emit ApprovalForAll(msg.sender, operator, approved);\n    }\n\n    /**\n        @notice Queries the approval status of an operator for a given owner.\n        @param owner     The owner of the Tokens\n        @param operator  Address of authorized operator\n        @return           True if the operator is approved, false if not\n    */\n    function isApprovedForAll(address owner, address operator) external view returns (bool) {\n        return _operatorApprovals[owner][operator];\n    }\n\n    /**\n        @dev Transfers `value` amount of an `id` from the `from` address to the `to` address specified.\n        Caller must be approved to manage the tokens being transferred out of the `from` account.\n        If `to` is a smart contract, will call `onERC1155Received` on `to` and act appropriately.\n        @param from Source address\n        @param to Target address\n        @param id ID of the token type\n        @param value Transfer amount\n        @param data Data forwarded to `onERC1155Received` if `to` is a contract receiver\n    */\n    function safeTransferFrom(\n        address from,\n        address to,\n        uint256 id,\n        uint256 value,\n        bytes calldata data\n    )\n        external\n    {\n        require(to != address(0), \"ERC1155: target address must be non-zero\");\n        require(\n            from == msg.sender || _operatorApprovals[from][msg.sender] == true,\n            \"ERC1155: need operator approval for 3rd party transfers.\"\n        );\n\n        _balances[id][from] = _balances[id][from].sub(value);\n        _balances[id][to] = value.add(_balances[id][to]);\n\n        emit TransferSingle(msg.sender, from, to, id, value);\n\n        _doSafeTransferAcceptanceCheck(msg.sender, from, to, id, value, data);\n    }\n\n    /**\n        @dev Transfers `values` amount(s) of `ids` from the `from` address to the\n        `to` address specified. Caller must be approved to manage the tokens being\n        transferred out of the `from` account. If `to` is a smart contract, will\n        call `onERC1155BatchReceived` on `to` and act appropriately.\n        @param from Source address\n        @param to Target address\n        @param ids IDs of each token type\n        @param values Transfer amounts per token type\n        @param data Data forwarded to `onERC1155Received` if `to` is a contract receiver\n    */\n    function safeBatchTransferFrom(\n        address from,\n        address to,\n        uint256[] calldata ids,\n        uint256[] calldata values,\n        bytes calldata data\n    )\n        external\n    {\n        require(ids.length == values.length, \"ERC1155: IDs and values must have same lengths\");\n        require(to != address(0), \"ERC1155: target address must be non-zero\");\n        require(\n            from == msg.sender || _operatorApprovals[from][msg.sender] == true,\n            \"ERC1155: need operator approval for 3rd party transfers.\"\n        );\n\n        for (uint256 i = 0; i < ids.length; ++i) {\n            uint256 id = ids[i];\n            uint256 value = values[i];\n\n            _balances[id][from] = _balances[id][from].sub(value);\n            _balances[id][to] = value.add(_balances[id][to]);\n        }\n\n        emit TransferBatch(msg.sender, from, to, ids, values);\n\n        _doSafeBatchTransferAcceptanceCheck(msg.sender, from, to, ids, values, data);\n    }\n\n    /**\n     * @dev Internal function to mint an amount of a token with the given ID\n     * @param to The address that will own the minted token\n     * @param id ID of the token to be minted\n     * @param value Amount of the token to be minted\n     * @param data Data forwarded to `onERC1155Received` if `to` is a contract receiver\n     */\n    function _mint(address to, uint256 id, uint256 value, bytes memory data) internal {\n        require(to != address(0), \"ERC1155: mint to the zero address\");\n\n        _balances[id][to] = value.add(_balances[id][to]);\n        emit TransferSingle(msg.sender, address(0), to, id, value);\n\n        _doSafeTransferAcceptanceCheck(msg.sender, address(0), to, id, value, data);\n    }\n\n    /**\n     * @dev Internal function to batch mint amounts of tokens with the given IDs\n     * @param to The address that will own the minted token\n     * @param ids IDs of the tokens to be minted\n     * @param values Amounts of the tokens to be minted\n     * @param data Data forwarded to `onERC1155Received` if `to` is a contract receiver\n     */\n    function _batchMint(address to, uint256[] memory ids, uint256[] memory values, bytes memory data) internal {\n        require(to != address(0), \"ERC1155: batch mint to the zero address\");\n        require(ids.length == values.length, \"ERC1155: IDs and values must have same lengths\");\n\n        for(uint i = 0; i < ids.length; i++) {\n            _balances[ids[i]][to] = values[i].add(_balances[ids[i]][to]);\n        }\n\n        emit TransferBatch(msg.sender, address(0), to, ids, values);\n\n        _doSafeBatchTransferAcceptanceCheck(msg.sender, address(0), to, ids, values, data);\n    }\n\n    /**\n     * @dev Internal function to burn an amount of a token with the given ID\n     * @param owner Account which owns the token to be burnt\n     * @param id ID of the token to be burnt\n     * @param value Amount of the token to be burnt\n     */\n    function _burn(address owner, uint256 id, uint256 value) internal {\n        _balances[id][owner] = _balances[id][owner].sub(value);\n        emit TransferSingle(msg.sender, owner, address(0), id, value);\n    }\n\n    /**\n     * @dev Internal function to batch burn an amounts of tokens with the given IDs\n     * @param owner Account which owns the token to be burnt\n     * @param ids IDs of the tokens to be burnt\n     * @param values Amounts of the tokens to be burnt\n     */\n    function _batchBurn(address owner, uint256[] memory ids, uint256[] memory values) internal {\n        require(ids.length == values.length, \"ERC1155: IDs and values must have same lengths\");\n\n        for(uint i = 0; i < ids.length; i++) {\n            _balances[ids[i]][owner] = _balances[ids[i]][owner].sub(values[i]);\n        }\n\n        emit TransferBatch(msg.sender, owner, address(0), ids, values);\n    }\n\n    function _doSafeTransferAcceptanceCheck(\n        address operator,\n        address from,\n        address to,\n        uint256 id,\n        uint256 value,\n        bytes memory data\n    )\n        internal\n    {\n        if(to.isContract()) {\n            require(\n                IERC1155TokenReceiver(to).onERC1155Received(operator, from, id, value, data) ==\n                    IERC1155TokenReceiver(to).onERC1155Received.selector,\n                \"ERC1155: got unknown value from onERC1155Received\"\n            );\n        }\n    }\n\n    function _doSafeBatchTransferAcceptanceCheck(\n        address operator,\n        address from,\n        address to,\n        uint256[] memory ids,\n        uint256[] memory values,\n        bytes memory data\n    )\n        internal\n    {\n        if(to.isContract()) {\n            require(\n                IERC1155TokenReceiver(to).onERC1155BatchReceived(operator, from, ids, values, data) == IERC1155TokenReceiver(to).onERC1155BatchReceived.selector,\n                \"ERC1155: got unknown value from onERC1155BatchReceived\"\n            );\n        }\n    }\n}\n",
  "sourcePath": "F:\\workhome\\blockchain\\dgov-subgraph\\contracts\\ERC1155\\ERC1155.sol",
  "compiler": {
    "name": "solc",
    "version": "0.5.17+commit.d19bba13.Emscripten.clang"
  },
  "schemaVersion": "3.4.3",
  "updatedAt": "2021-12-18T17:13:27.577Z",
  "devdoc": {
    "details": "Implementation of the basic standard multi-token. See https://eips.ethereum.org/EIPS/eip-1155 Originally based on code by Enjin: https://github.com/enjin/erc-1155",
    "methods": {
      "balanceOf(address,uint256)": {
        "details": "Get the specified address' balance for token with specified ID.",
        "params": {
          "id": "ID of the token",
          "owner": "The address of the token holder"
        },
        "return": "The owner's balance of the token type requested"
      },
      "balanceOfBatch(address[],uint256[])": {
        "details": "Get the balance of multiple account/token pairs",
        "params": {
          "ids": "IDs of the tokens",
          "owners": "The addresses of the token holders"
        },
        "return": "Balances for each owner and token id pair"
      },
      "isApprovedForAll(address,address)": {
        "params": {
          "operator": "Address of authorized operator",
          "owner": "The owner of the Tokens"
        },
        "return": "True if the operator is approved, false if not"
      },
      "safeBatchTransferFrom(address,address,uint256[],uint256[],bytes)": {
        "details": "Transfers `values` amount(s) of `ids` from the `from` address to the `to` address specified. Caller must be approved to manage the tokens being transferred out of the `from` account. If `to` is a smart contract, will call `onERC1155BatchReceived` on `to` and act appropriately.",
        "params": {
          "data": "Data forwarded to `onERC1155Received` if `to` is a contract receiver",
          "from": "Source address",
          "ids": "IDs of each token type",
          "to": "Target address",
          "values": "Transfer amounts per token type"
        }
      },
      "safeTransferFrom(address,address,uint256,uint256,bytes)": {
        "details": "Transfers `value` amount of an `id` from the `from` address to the `to` address specified. Caller must be approved to manage the tokens being transferred out of the `from` account. If `to` is a smart contract, will call `onERC1155Received` on `to` and act appropriately.",
        "params": {
          "data": "Data forwarded to `onERC1155Received` if `to` is a contract receiver",
          "from": "Source address",
          "id": "ID of the token type",
          "to": "Target address",
          "value": "Transfer amount"
        }
      },
      "setApprovalForAll(address,bool)": {
        "details": "Sets or unsets the approval of a given operator An operator is allowed to transfer all tokens of the sender on their behalf",
        "params": {
          "approved": "representing the status of the approval to be set",
          "operator": "address to set the approval"
        }
      },
      "supportsInterface(bytes4)": {
        "details": "See `IERC165.supportsInterface`.     * Time complexity O(1), guaranteed to always use less than 30 000 gas."
      }
    },
    "title": "Standard ERC1155 token"
  },
  "userdoc": {
    "methods": {
      "isApprovedForAll(address,address)": {
        "notice": "Queries the approval status of an operator for a given owner."
      }
    }
  }
}