{
  "contractName": "LMSRMarketMaker",
  "abi": [
    {
      "anonymous": false,
      "inputs": [],
      "name": "AMMClosed",
      "type": "event"
    },
    {
      "anonymous": false,
      "inputs": [
        {
          "indexed": false,
          "internalType": "uint256",
          "name": "initialFunding",
          "type": "uint256"
        }
      ],
      "name": "AMMCreated",
      "type": "event"
    },
    {
      "anonymous": false,
      "inputs": [
        {
          "indexed": false,
          "internalType": "uint64",
          "name": "newFee",
          "type": "uint64"
        }
      ],
      "name": "AMMFeeChanged",
      "type": "event"
    },
    {
      "anonymous": false,
      "inputs": [
        {
          "indexed": false,
          "internalType": "uint256",
          "name": "fees",
          "type": "uint256"
        }
      ],
      "name": "AMMFeeWithdrawal",
      "type": "event"
    },
    {
      "anonymous": false,
      "inputs": [
        {
          "indexed": false,
          "internalType": "int256",
          "name": "fundingChange",
          "type": "int256"
        }
      ],
      "name": "AMMFundingChanged",
      "type": "event"
    },
    {
      "anonymous": false,
      "inputs": [
        {
          "indexed": true,
          "internalType": "address",
          "name": "transactor",
          "type": "address"
        },
        {
          "indexed": false,
          "internalType": "int256[]",
          "name": "outcomeTokenAmounts",
          "type": "int256[]"
        },
        {
          "indexed": false,
          "internalType": "int256",
          "name": "outcomeTokenNetCost",
          "type": "int256"
        },
        {
          "indexed": false,
          "internalType": "uint256",
          "name": "marketFees",
          "type": "uint256"
        }
      ],
      "name": "AMMOutcomeTokenTrade",
      "type": "event"
    },
    {
      "anonymous": false,
      "inputs": [],
      "name": "AMMPaused",
      "type": "event"
    },
    {
      "anonymous": false,
      "inputs": [],
      "name": "AMMResumed",
      "type": "event"
    },
    {
      "anonymous": false,
      "inputs": [
        {
          "indexed": true,
          "internalType": "address",
          "name": "previousOwner",
          "type": "address"
        },
        {
          "indexed": true,
          "internalType": "address",
          "name": "newOwner",
          "type": "address"
        }
      ],
      "name": "OwnershipTransferred",
      "type": "event"
    },
    {
      "constant": true,
      "inputs": [],
      "name": "FEE_RANGE",
      "outputs": [
        {
          "internalType": "uint64",
          "name": "",
          "type": "uint64"
        }
      ],
      "payable": false,
      "stateMutability": "view",
      "type": "function"
    },
    {
      "constant": true,
      "inputs": [],
      "name": "atomicOutcomeSlotCount",
      "outputs": [
        {
          "internalType": "uint256",
          "name": "",
          "type": "uint256"
        }
      ],
      "payable": false,
      "stateMutability": "view",
      "type": "function"
    },
    {
      "constant": true,
      "inputs": [
        {
          "internalType": "uint256",
          "name": "outcomeTokenCost",
          "type": "uint256"
        }
      ],
      "name": "calcMarketFee",
      "outputs": [
        {
          "internalType": "uint256",
          "name": "",
          "type": "uint256"
        }
      ],
      "payable": false,
      "stateMutability": "view",
      "type": "function"
    },
    {
      "constant": false,
      "inputs": [
        {
          "internalType": "uint64",
          "name": "_fee",
          "type": "uint64"
        }
      ],
      "name": "changeFee",
      "outputs": [],
      "payable": false,
      "stateMutability": "nonpayable",
      "type": "function"
    },
    {
      "constant": false,
      "inputs": [
        {
          "internalType": "int256",
          "name": "fundingChange",
          "type": "int256"
        }
      ],
      "name": "changeFunding",
      "outputs": [],
      "payable": false,
      "stateMutability": "nonpayable",
      "type": "function"
    },
    {
      "constant": false,
      "inputs": [],
      "name": "close",
      "outputs": [],
      "payable": false,
      "stateMutability": "nonpayable",
      "type": "function"
    },
    {
      "constant": true,
      "inputs": [],
      "name": "collateralToken",
      "outputs": [
        {
          "internalType": "contract YAKIPoint",
          "name": "",
          "type": "address"
        }
      ],
      "payable": false,
      "stateMutability": "view",
      "type": "function"
    },
    {
      "constant": true,
      "inputs": [
        {
          "internalType": "uint256",
          "name": "",
          "type": "uint256"
        }
      ],
      "name": "conditionIds",
      "outputs": [
        {
          "internalType": "bytes32",
          "name": "",
          "type": "bytes32"
        }
      ],
      "payable": false,
      "stateMutability": "view",
      "type": "function"
    },
    {
      "constant": true,
      "inputs": [],
      "name": "fee",
      "outputs": [
        {
          "internalType": "uint64",
          "name": "",
          "type": "uint64"
        }
      ],
      "payable": false,
      "stateMutability": "view",
      "type": "function"
    },
    {
      "constant": true,
      "inputs": [],
      "name": "funding",
      "outputs": [
        {
          "internalType": "uint256",
          "name": "",
          "type": "uint256"
        }
      ],
      "payable": false,
      "stateMutability": "view",
      "type": "function"
    },
    {
      "constant": true,
      "inputs": [],
      "name": "isOwner",
      "outputs": [
        {
          "internalType": "bool",
          "name": "",
          "type": "bool"
        }
      ],
      "payable": false,
      "stateMutability": "view",
      "type": "function"
    },
    {
      "constant": false,
      "inputs": [
        {
          "internalType": "address",
          "name": "_operator",
          "type": "address"
        },
        {
          "internalType": "address",
          "name": "",
          "type": "address"
        },
        {
          "internalType": "uint256[]",
          "name": "",
          "type": "uint256[]"
        },
        {
          "internalType": "uint256[]",
          "name": "",
          "type": "uint256[]"
        },
        {
          "internalType": "bytes",
          "name": "",
          "type": "bytes"
        }
      ],
      "name": "onERC1155BatchReceived",
      "outputs": [
        {
          "internalType": "bytes4",
          "name": "",
          "type": "bytes4"
        }
      ],
      "payable": false,
      "stateMutability": "nonpayable",
      "type": "function"
    },
    {
      "constant": false,
      "inputs": [
        {
          "internalType": "address",
          "name": "operator",
          "type": "address"
        },
        {
          "internalType": "address",
          "name": "",
          "type": "address"
        },
        {
          "internalType": "uint256",
          "name": "",
          "type": "uint256"
        },
        {
          "internalType": "uint256",
          "name": "",
          "type": "uint256"
        },
        {
          "internalType": "bytes",
          "name": "",
          "type": "bytes"
        }
      ],
      "name": "onERC1155Received",
      "outputs": [
        {
          "internalType": "bytes4",
          "name": "",
          "type": "bytes4"
        }
      ],
      "payable": false,
      "stateMutability": "nonpayable",
      "type": "function"
    },
    {
      "constant": true,
      "inputs": [],
      "name": "owner",
      "outputs": [
        {
          "internalType": "address",
          "name": "",
          "type": "address"
        }
      ],
      "payable": false,
      "stateMutability": "view",
      "type": "function"
    },
    {
      "constant": false,
      "inputs": [],
      "name": "pause",
      "outputs": [],
      "payable": false,
      "stateMutability": "nonpayable",
      "type": "function"
    },
    {
      "constant": true,
      "inputs": [],
      "name": "pmSystem",
      "outputs": [
        {
          "internalType": "contract ConditionalTokens",
          "name": "",
          "type": "address"
        }
      ],
      "payable": false,
      "stateMutability": "view",
      "type": "function"
    },
    {
      "constant": false,
      "inputs": [],
      "name": "renounceOwnership",
      "outputs": [],
      "payable": false,
      "stateMutability": "nonpayable",
      "type": "function"
    },
    {
      "constant": false,
      "inputs": [],
      "name": "resume",
      "outputs": [],
      "payable": false,
      "stateMutability": "nonpayable",
      "type": "function"
    },
    {
      "constant": true,
      "inputs": [],
      "name": "stage",
      "outputs": [
        {
          "internalType": "enum MarketMaker.Stage",
          "name": "",
          "type": "uint8"
        }
      ],
      "payable": false,
      "stateMutability": "view",
      "type": "function"
    },
    {
      "constant": true,
      "inputs": [
        {
          "internalType": "bytes4",
          "name": "interfaceId",
          "type": "bytes4"
        }
      ],
      "name": "supportsInterface",
      "outputs": [
        {
          "internalType": "bool",
          "name": "",
          "type": "bool"
        }
      ],
      "payable": false,
      "stateMutability": "view",
      "type": "function"
    },
    {
      "constant": false,
      "inputs": [
        {
          "internalType": "int256[]",
          "name": "outcomeTokenAmounts",
          "type": "int256[]"
        },
        {
          "internalType": "int256",
          "name": "collateralLimit",
          "type": "int256"
        }
      ],
      "name": "trade",
      "outputs": [
        {
          "internalType": "int256",
          "name": "netCost",
          "type": "int256"
        }
      ],
      "payable": false,
      "stateMutability": "nonpayable",
      "type": "function"
    },
    {
      "constant": false,
      "inputs": [
        {
          "internalType": "address",
          "name": "newOwner",
          "type": "address"
        }
      ],
      "name": "transferOwnership",
      "outputs": [],
      "payable": false,
      "stateMutability": "nonpayable",
      "type": "function"
    },
    {
      "constant": true,
      "inputs": [],
      "name": "whitelist",
      "outputs": [
        {
          "internalType": "contract Whitelist",
          "name": "",
          "type": "address"
        }
      ],
      "payable": false,
      "stateMutability": "view",
      "type": "function"
    },
    {
      "constant": false,
      "inputs": [],
      "name": "withdrawFees",
      "outputs": [
        {
          "internalType": "uint256",
          "name": "fees",
          "type": "uint256"
        }
      ],
      "payable": false,
      "stateMutability": "nonpayable",
      "type": "function"
    },
    {
      "constant": true,
      "inputs": [
        {
          "internalType": "int256[]",
          "name": "outcomeTokenAmounts",
          "type": "int256[]"
        }
      ],
      "name": "calcNetCost",
      "outputs": [
        {
          "internalType": "int256",
          "name": "netCost",
          "type": "int256"
        }
      ],
      "payable": false,
      "stateMutability": "view",
      "type": "function"
    },
    {
      "constant": true,
      "inputs": [
        {
          "internalType": "uint8",
          "name": "outcomeTokenIndex",
          "type": "uint8"
        }
      ],
      "name": "calcMarginalPrice",
      "outputs": [
        {
          "internalType": "uint256",
          "name": "price",
          "type": "uint256"
        }
      ],
      "payable": false,
      "stateMutability": "view",
      "type": "function"
    }
  ],
  "bytecode": "0x6080604052336000806101000a81548173ffffffffffffffffffffffffffffffffffffffff021916908373ffffffffffffffffffffffffffffffffffffffff1602179055506000809054906101000a900473ffffffffffffffffffffffffffffffffffffffff1673ffffffffffffffffffffffffffffffffffffffff16600073ffffffffffffffffffffffffffffffffffffffff167f8be0079c531659141344cd1fd0a4f28419497f9722a3daafe3b4186f6b6457e060405160405180910390a3620000d86301ffc9a760e01b6200013360201b60201c565b6200012d600073ffffffffffffffffffffffffffffffffffffffff1663bc197c81905060e01b600073ffffffffffffffffffffffffffffffffffffffff1663f23a6e61905060e01b186200013360201b60201c565b6200023c565b63ffffffff60e01b817bffffffffffffffffffffffffffffffffffffffffffffffffffffffff19161415620001d0576040517f08c379a000000000000000000000000000000000000000000000000000000000815260040180806020018281038252601c8152602001807f4552433136353a20696e76616c696420696e746572666163652069640000000081525060200191505060405180910390fd5b6001806000837bffffffffffffffffffffffffffffffffffffffffffffffffffffffff19167bffffffffffffffffffffffffffffffffffffffffffffffffffffffff1916815260200190815260200160002060006101000a81548160ff02191690831515021790555050565b6138d0806200024c6000396000f3fe608060405234801561001057600080fd5b506004361061018e5760003560e01c8063b0011509116100de578063d8c55af711610097578063e7f3378911610071578063e7f3378914610870578063f23a6e61146108a8578063f2fde38b146109c7578063fbde47f614610a0b5761018e565b8063d8c55af7146107de578063dd83bad214610820578063ddca3f431461083e5761018e565b8063b00115091461050e578063b2016bd414610550578063b20f8e7f1461059a578063bc197c81146105df578063c040e6b814610794578063cb4c86b7146107c05761018e565b8063715018a61161014b57806387f39a5c1161012557806387f39a5c1461042a5780638da5cb5b146104585780638f32d59b146104a257806393e59dc1146104c45761018e565b8063715018a61461034a578063782d085b146103545780638456cb59146104205761018e565b806301ffc9a714610193578063046f7da2146101f857806305be8b2c1461020257806315bd76111461024c57806343d726d614610322578063476343ee1461032c575b600080fd5b6101de600480360360208110156101a957600080fd5b8101908080357bffffffffffffffffffffffffffffffffffffffffffffffffffffffff19169060200190929190505050610a3d565b604051808215151515815260200191505060405180910390f35b610200610aa5565b005b61020a610ba5565b604051808273ffffffffffffffffffffffffffffffffffffffff1673ffffffffffffffffffffffffffffffffffffffff16815260200191505060405180910390f35b61030c6004803603604081101561026257600080fd5b810190808035906020019064010000000081111561027f57600080fd5b82018360208201111561029157600080fd5b803590602001918460208302840111640100000000831117156102b357600080fd5b919080806020026020016040519081016040528093929190818152602001838360200280828437600081840152601f19601f82011690508083019250505050505050919291929080359060200190929190505050610bcb565b6040518082815260200191505060405180910390f35b61032a611677565b005b610334611a15565b6040518082815260200191505060405180910390f35b610352611c9b565b005b61040a6004803603602081101561036a57600080fd5b810190808035906020019064010000000081111561038757600080fd5b82018360208201111561039957600080fd5b803590602001918460208302840111640100000000831117156103bb57600080fd5b919080806020026020016040519081016040528093929190818152602001838360200280828437600081840152601f19601f820116905080830192505050505050509192919290505050611dd4565b6040518082815260200191505060405180910390f35b610428612192565b005b6104566004803603602081101561044057600080fd5b8101908080359060200190929190505050612292565b005b6104606127b0565b604051808273ffffffffffffffffffffffffffffffffffffffff1673ffffffffffffffffffffffffffffffffffffffff16815260200191505060405180910390f35b6104aa6127d9565b604051808215151515815260200191505060405180910390f35b6104cc612830565b604051808273ffffffffffffffffffffffffffffffffffffffff1673ffffffffffffffffffffffffffffffffffffffff16815260200191505060405180910390f35b61053a6004803603602081101561052457600080fd5b8101908080359060200190929190505050612856565b6040518082815260200191505060405180910390f35b61055861289d565b604051808273ffffffffffffffffffffffffffffffffffffffff1673ffffffffffffffffffffffffffffffffffffffff16815260200191505060405180910390f35b6105c9600480360360208110156105b057600080fd5b81019080803560ff1690602001909291905050506128c3565b6040518082815260200191505060405180910390f35b610740600480360360a08110156105f557600080fd5b81019080803573ffffffffffffffffffffffffffffffffffffffff169060200190929190803573ffffffffffffffffffffffffffffffffffffffff1690602001909291908035906020019064010000000081111561065257600080fd5b82018360208201111561066457600080fd5b8035906020019184602083028401116401000000008311171561068657600080fd5b9091929391929390803590602001906401000000008111156106a757600080fd5b8201836020820111156106b957600080fd5b803590602001918460208302840111640100000000831117156106db57600080fd5b9091929391929390803590602001906401000000008111156106fc57600080fd5b82018360208201111561070e57600080fd5b8035906020019184600183028401116401000000008311171561073057600080fd5b9091929391929390505050612b1e565b60405180827bffffffffffffffffffffffffffffffffffffffffffffffffffffffff19167bffffffffffffffffffffffffffffffffffffffffffffffffffffffff1916815260200191505060405180910390f35b61079c612b77565b604051808260028111156107ac57fe5b60ff16815260200191505060405180910390f35b6107c8612b8a565b6040518082815260200191505060405180910390f35b61080a600480360360208110156107f457600080fd5b8101908080359060200190929190505050612b90565b6040518082815260200191505060405180910390f35b610828612bb1565b6040518082815260200191505060405180910390f35b610846612bb7565b604051808267ffffffffffffffff1667ffffffffffffffff16815260200191505060405180910390f35b6108a66004803603602081101561088657600080fd5b81019080803567ffffffffffffffff169060200190929190505050612bd1565b005b610973600480360360a08110156108be57600080fd5b81019080803573ffffffffffffffffffffffffffffffffffffffff169060200190929190803573ffffffffffffffffffffffffffffffffffffffff16906020019092919080359060200190929190803590602001909291908035906020019064010000000081111561092f57600080fd5b82018360208201111561094157600080fd5b8035906020019184600183028401116401000000008311171561096357600080fd5b9091929391929390505050612d0c565b60405180827bffffffffffffffffffffffffffffffffffffffffffffffffffffffff19167bffffffffffffffffffffffffffffffffffffffffffffffffffffffff1916815260200191505060405180910390f35b610a09600480360360208110156109dd57600080fd5b81019080803573ffffffffffffffffffffffffffffffffffffffff169060200190929190505050612d63565b005b610a13612de9565b604051808267ffffffffffffffff1667ffffffffffffffff16815260200191505060405180910390f35b600060016000837bffffffffffffffffffffffffffffffffffffffffffffffffffffffff19167bffffffffffffffffffffffffffffffffffffffffffffffffffffffff1916815260200190815260200160002060009054906101000a900460ff169050919050565b610aad6127d9565b610b1f576040517f08c379a00000000000000000000000000000000000000000000000000000000081526004018080602001828103825260208152602001807f4f776e61626c653a2063616c6c6572206973206e6f7420746865206f776e657281525060200191505060405180910390fd5b6001806002811115610b2d57fe5b600860009054906101000a900460ff166002811115610b4857fe5b14610b5257600080fd5b6000600860006101000a81548160ff02191690836002811115610b7157fe5b02179055507fb0cf596e1402e50b88a6d1097918e48922e4a2878ece11d7bb51b5d81cf6c17860405160405180910390a150565b600260009054906101000a900473ffffffffffffffffffffffffffffffffffffffff1681565b600080806002811115610bda57fe5b600860009054906101000a900460ff166002811115610bf557fe5b14610bff57600080fd5b600073ffffffffffffffffffffffffffffffffffffffff16600860019054906101000a900473ffffffffffffffffffffffffffffffffffffffff1673ffffffffffffffffffffffffffffffffffffffff161480610d325750600860019054906101000a900473ffffffffffffffffffffffffffffffffffffffff1673ffffffffffffffffffffffffffffffffffffffff16633af32abf336040518263ffffffff1660e01b8152600401808273ffffffffffffffffffffffffffffffffffffffff1673ffffffffffffffffffffffffffffffffffffffff16815260200191505060206040518083038186803b158015610cf657600080fd5b505afa158015610d0a573d6000803e3d6000fd5b505050506040513d6020811015610d2057600080fd5b81019080805190602001909291905050505b610d87576040517f08c379a000000000000000000000000000000000000000000000000000000000815260040180806020018281038252602d81526020018061384c602d913960400191505060405180910390fd5b600554845114610d9657600080fd5b6000610da185611dd4565b9050600080821215610dc057610db982600003612856565b9050610dcc565b610dc982612856565b90505b6000811215610dda57600080fd5b610ded8183612df590919063ffffffff16565b935060008514158015610e005750848413155b80610e0b5750600085145b610e1457600080fd5b600082131561105657600360009054906101000a900473ffffffffffffffffffffffffffffffffffffffff1673ffffffffffffffffffffffffffffffffffffffff16635686cf633330876040518463ffffffff1660e01b8152600401808473ffffffffffffffffffffffffffffffffffffffff1673ffffffffffffffffffffffffffffffffffffffff1681526020018373ffffffffffffffffffffffffffffffffffffffff1673ffffffffffffffffffffffffffffffffffffffff1681526020018281526020019350505050602060405180830381600087803b158015610efa57600080fd5b505af1158015610f0e573d6000803e3d6000fd5b505050506040513d6020811015610f2457600080fd5b810190808051906020019092919050505080156110435750600360009054906101000a900473ffffffffffffffffffffffffffffffffffffffff1673ffffffffffffffffffffffffffffffffffffffff16638b73f043600260009054906101000a900473ffffffffffffffffffffffffffffffffffffffff16846040518363ffffffff1660e01b8152600401808373ffffffffffffffffffffffffffffffffffffffff1673ffffffffffffffffffffffffffffffffffffffff16815260200182815260200192505050602060405180830381600087803b15801561100757600080fd5b505af115801561101b573d6000803e3d6000fd5b505050506040513d602081101561103157600080fd5b81019080805190602001909291905050505b61104c57600080fd5b61105582612e2f565b5b6000809050606060055460405190808252806020026020018201604052801561108e5781602001602082028038833980820191505090505b50905060008090505b6005548110156110fe5760008982815181106110af57fe5b602002602001015112156110f157600192508881815181106110cd57fe5b60200260200101516000038282815181106110e457fe5b6020026020010181815250505b8080600101915050611097565b50811561129757600260009054906101000a900473ffffffffffffffffffffffffffffffffffffffff1673ffffffffffffffffffffffffffffffffffffffff16632eb2c2d63330600b856040518563ffffffff1660e01b8152600401808573ffffffffffffffffffffffffffffffffffffffff1673ffffffffffffffffffffffffffffffffffffffff1681526020018473ffffffffffffffffffffffffffffffffffffffff1673ffffffffffffffffffffffffffffffffffffffff168152602001806020018060200180602001848103845286818154815260200191508054801561120857602002820191906000526020600020905b8154815260200190600101908083116111f4575b5050848103835285818151815260200191508051906020019060200280838360005b8381101561124557808201518184015260208101905061122a565b50505050905001848103825260008152602001602001975050505050505050600060405180830381600087803b15801561127e57600080fd5b505af1158015611292573d6000803e3d6000fd5b505050505b60008412156112ad576112ac84600003613031565b5b3373ffffffffffffffffffffffffffffffffffffffff167fda7ff5556ce7ecfcf06296f03426e8c02a7305b85cfd88816a32f7f4969051778986866040518080602001848152602001838152602001828103825285818151815260200191508051906020019060200280838360005b8381101561133757808201518184015260208101905061131c565b5050505090500194505050505060405180910390a26000915060008090505b6005548110156113d957600089828151811061136e57fe5b602002602001015113156113b1576001925088818151811061138c57fe5b60200260200101518282815181106113a057fe5b6020026020010181815250506113cc565b60008282815181106113bf57fe5b6020026020010181815250505b8080600101915050611356565b50811561157257600260009054906101000a900473ffffffffffffffffffffffffffffffffffffffff1673ffffffffffffffffffffffffffffffffffffffff16632eb2c2d63033600b856040518563ffffffff1660e01b8152600401808573ffffffffffffffffffffffffffffffffffffffff1673ffffffffffffffffffffffffffffffffffffffff1681526020018473ffffffffffffffffffffffffffffffffffffffff1673ffffffffffffffffffffffffffffffffffffffff16815260200180602001806020018060200184810384528681815481526020019150805480156114e357602002820191906000526020600020905b8154815260200190600101908083116114cf575b5050848103835285818151815260200191508051906020019060200280838360005b83811015611520578082015181840152602081019050611505565b50505050905001848103825260008152602001602001975050505050505050600060405180830381600087803b15801561155957600080fd5b505af115801561156d573d6000803e3d6000fd5b505050505b600086121561166c57600360009054906101000a900473ffffffffffffffffffffffffffffffffffffffff1673ffffffffffffffffffffffffffffffffffffffff1663015af3fe33886000036040518363ffffffff1660e01b8152600401808373ffffffffffffffffffffffffffffffffffffffff1673ffffffffffffffffffffffffffffffffffffffff16815260200182815260200192505050602060405180830381600087803b15801561162757600080fd5b505af115801561163b573d6000803e3d6000fd5b505050506040513d602081101561165157600080fd5b810190808051906020019092919050505061166b57600080fd5b5b505050505092915050565b61167f6127d9565b6116f1576040517f08c379a00000000000000000000000000000000000000000000000000000000081526004018080602001828103825260208152602001807f4f776e61626c653a2063616c6c6572206973206e6f7420746865206f776e657281525060200191505060405180910390fd5b600060028111156116fe57fe5b600860009054906101000a900460ff16600281111561171957fe5b148061174a57506001600281111561172d57fe5b600860009054906101000a900460ff16600281111561174857fe5b145b61179f576040517f08c379a00000000000000000000000000000000000000000000000000000000081526004018080602001828103825260238152602001806138796023913960400191505060405180910390fd5b60008090505b6005548110156119c25760006117ba8261322f565b9050600260009054906101000a900473ffffffffffffffffffffffffffffffffffffffff1673ffffffffffffffffffffffffffffffffffffffff1663f242432a306118036127b0565b84600260009054906101000a900473ffffffffffffffffffffffffffffffffffffffff1673ffffffffffffffffffffffffffffffffffffffff1662fdd58e30886040518363ffffffff1660e01b8152600401808373ffffffffffffffffffffffffffffffffffffffff1673ffffffffffffffffffffffffffffffffffffffff1681526020018281526020019250505060206040518083038186803b1580156118aa57600080fd5b505afa1580156118be573d6000803e3d6000fd5b505050506040513d60208110156118d457600080fd5b81019080805190602001909291905050506040518563ffffffff1660e01b8152600401808573ffffffffffffffffffffffffffffffffffffffff1673ffffffffffffffffffffffffffffffffffffffff1681526020018473ffffffffffffffffffffffffffffffffffffffff1673ffffffffffffffffffffffffffffffffffffffff1681526020018381526020018281526020018060200182810382526000815260200160200195505050505050600060405180830381600087803b15801561199c57600080fd5b505af11580156119b0573d6000803e3d6000fd5b505050505080806001019150506117a5565b506002600860006101000a81548160ff021916908360028111156119e257fe5b02179055507f6e18b1b14477b5922c6efa82206ed0e3b73c2500e8d1528c9a6e17554ea1255460405160405180910390a1565b6000611a1f6127d9565b611a91576040517f08c379a00000000000000000000000000000000000000000000000000000000081526004018080602001828103825260208152602001807f4f776e61626c653a2063616c6c6572206973206e6f7420746865206f776e657281525060200191505060405180910390fd5b600360009054906101000a900473ffffffffffffffffffffffffffffffffffffffff1673ffffffffffffffffffffffffffffffffffffffff1663990eb8cd306040518263ffffffff1660e01b8152600401808273ffffffffffffffffffffffffffffffffffffffff1673ffffffffffffffffffffffffffffffffffffffff16815260200191505060206040518083038186803b158015611b3057600080fd5b505afa158015611b44573d6000803e3d6000fd5b505050506040513d6020811015611b5a57600080fd5b81019080805190602001909291905050509050600360009054906101000a900473ffffffffffffffffffffffffffffffffffffffff1673ffffffffffffffffffffffffffffffffffffffff1663015af3fe611bb36127b0565b836040518363ffffffff1660e01b8152600401808373ffffffffffffffffffffffffffffffffffffffff1673ffffffffffffffffffffffffffffffffffffffff16815260200182815260200192505050602060405180830381600087803b158015611c1d57600080fd5b505af1158015611c31573d6000803e3d6000fd5b505050506040513d6020811015611c4757600080fd5b8101908080519060200190929190505050611c6157600080fd5b7fce1d35d26fbf6b3cc5cd924de10b5a52b08e484129ea7d93abc48d739fffe5b9816040518082815260200191505060405180910390a190565b611ca36127d9565b611d15576040517f08c379a00000000000000000000000000000000000000000000000000000000081526004018080602001828103825260208152602001807f4f776e61626c653a2063616c6c6572206973206e6f7420746865206f776e657281525060200191505060405180910390fd5b600073ffffffffffffffffffffffffffffffffffffffff166000809054906101000a900473ffffffffffffffffffffffffffffffffffffffff1673ffffffffffffffffffffffffffffffffffffffff167f8be0079c531659141344cd1fd0a4f28419497f9722a3daafe3b4186f6b6457e060405160405180910390a360008060006101000a81548173ffffffffffffffffffffffffffffffffffffffff021916908373ffffffffffffffffffffffffffffffffffffffff160217905550565b6000600554825114611de557600080fd5b6060600554604051908082528060200260200182016040528015611e185781602001602082028038833980820191505090505b50905060008090505b600554811015611f72576000600260009054906101000a900473ffffffffffffffffffffffffffffffffffffffff1673ffffffffffffffffffffffffffffffffffffffff1662fdd58e30611e748561322f565b6040518363ffffffff1660e01b8152600401808373ffffffffffffffffffffffffffffffffffffffff1673ffffffffffffffffffffffffffffffffffffffff1681526020018281526020019250505060206040518083038186803b158015611edb57600080fd5b505afa158015611eef573d6000803e3d6000fd5b505050506040513d6020811015611f0557600080fd5b810190808051906020019092919050505090506000811215611f2657600080fd5b611f4c81868481518110611f3657fe5b602002602001015161325090919063ffffffff16565b838381518110611f5857fe5b602002602001018181525050508080600101915050611e21565b50600073__Fixed192x64Math_______________________63137bf798680100000000000000006005540260016040518363ffffffff1660e01b815260040180838152602001826002811115611fc457fe5b60ff1681526020019250505060206040518083038186803b158015611fe857600080fd5b505af4158015611ffc573d6000803e3d6000fd5b505050506040513d602081101561201257600080fd5b8101908080519060200190929190505050905060008061203683856000600161328a565b509150915073__Fixed192x64Math_______________________63137bf7988360016040518363ffffffff1660e01b81526004018083815260200182600281111561207d57fe5b60ff1681526020019250505060206040518083038186803b1580156120a157600080fd5b505af41580156120b5573d6000803e3d6000fd5b505050506040513d60208110156120cb57600080fd5b810190808051906020019092919050505094506120f18186612df590919063ffffffff16565b945061212c6007548461211668010000000000000000896134f190919063ffffffff16565b8161211d57fe5b056134f190919063ffffffff16565b94506000851315806121515750846801000000000000000080878161214d57fe5b0502145b156121705768010000000000000000858161216857fe5b059450612189565b600168010000000000000000868161218457fe5b050194505b50505050919050565b61219a6127d9565b61220c576040517f08c379a00000000000000000000000000000000000000000000000000000000081526004018080602001828103825260208152602001807f4f776e61626c653a2063616c6c6572206973206e6f7420746865206f776e657281525060200191505060405180910390fd5b600080600281111561221a57fe5b600860009054906101000a900460ff16600281111561223557fe5b1461223f57600080fd5b6001600860006101000a81548160ff0219169083600281111561225e57fe5b02179055507fbb11914e7a395f00cf0920fe85f50088bd8d7681529fb0bd3c27ccb45a8bcd8f60405160405180910390a150565b61229a6127d9565b61230c576040517f08c379a00000000000000000000000000000000000000000000000000000000081526004018080602001828103825260208152602001807f4f776e61626c653a2063616c6c6572206973206e6f7420746865206f776e657281525060200191505060405180910390fd5b600180600281111561231a57fe5b600860009054906101000a900460ff16600281111561233557fe5b1461233f57600080fd5b60008214156123b6576040517f08c379a000000000000000000000000000000000000000000000000000000000815260040180806020018281038252601f8152602001807f66756e64696e67206368616e6765206d757374206265206e6f6e2d7a65726f0081525060200191505060405180910390fd5b600082131561264a57600360009054906101000a900473ffffffffffffffffffffffffffffffffffffffff1673ffffffffffffffffffffffffffffffffffffffff16635686cf633330856040518463ffffffff1660e01b8152600401808473ffffffffffffffffffffffffffffffffffffffff1673ffffffffffffffffffffffffffffffffffffffff1681526020018373ffffffffffffffffffffffffffffffffffffffff1673ffffffffffffffffffffffffffffffffffffffff1681526020018281526020019350505050602060405180830381600087803b15801561249c57600080fd5b505af11580156124b0573d6000803e3d6000fd5b505050506040513d60208110156124c657600080fd5b810190808051906020019092919050505080156125e55750600360009054906101000a900473ffffffffffffffffffffffffffffffffffffffff1673ffffffffffffffffffffffffffffffffffffffff16638b73f043600260009054906101000a900473ffffffffffffffffffffffffffffffffffffffff16846040518363ffffffff1660e01b8152600401808373ffffffffffffffffffffffffffffffffffffffff1673ffffffffffffffffffffffffffffffffffffffff16815260200182815260200192505050602060405180830381600087803b1580156125a957600080fd5b505af11580156125bd573d6000803e3d6000fd5b505050506040513d60208110156125d357600080fd5b81019080805190602001909291905050505b6125ee57600080fd5b6125f782612e2f565b61260c8260075461355e90919063ffffffff16565b6007819055507fc55e9a33fb8b1de5318b5c7b96a32937e54006c82000b2c468ed1fb9f73f6799826040518082815260200191505060405180910390a15b60008212156127ac5761265f82600003613031565b612677826000036007546135e690919063ffffffff16565b600781905550600360009054906101000a900473ffffffffffffffffffffffffffffffffffffffff1673ffffffffffffffffffffffffffffffffffffffff1663015af3fe6126c36127b0565b846000036040518363ffffffff1660e01b8152600401808373ffffffffffffffffffffffffffffffffffffffff1673ffffffffffffffffffffffffffffffffffffffff16815260200182815260200192505050602060405180830381600087803b15801561273057600080fd5b505af1158015612744573d6000803e3d6000fd5b505050506040513d602081101561275a57600080fd5b810190808051906020019092919050505061277457600080fd5b7fc55e9a33fb8b1de5318b5c7b96a32937e54006c82000b2c468ed1fb9f73f6799826040518082815260200191505060405180910390a15b5050565b60008060009054906101000a900473ffffffffffffffffffffffffffffffffffffffff16905090565b60008060009054906101000a900473ffffffffffffffffffffffffffffffffffffffff1673ffffffffffffffffffffffffffffffffffffffff163373ffffffffffffffffffffffffffffffffffffffff1614905090565b600860019054906101000a900473ffffffffffffffffffffffffffffffffffffffff1681565b6000670de0b6b3a764000067ffffffffffffffff16600660009054906101000a900467ffffffffffffffff1667ffffffffffffffff1683028161289557fe5b049050919050565b600360009054906101000a900473ffffffffffffffffffffffffffffffffffffffff1681565b600060606005546040519080825280602002602001820160405280156128f85781602001602082028038833980820191505090505b50905060008090505b600554811015612a30576000600260009054906101000a900473ffffffffffffffffffffffffffffffffffffffff1673ffffffffffffffffffffffffffffffffffffffff1662fdd58e306129548561322f565b6040518363ffffffff1660e01b8152600401808373ffffffffffffffffffffffffffffffffffffffff1673ffffffffffffffffffffffffffffffffffffffff1681526020018281526020019250505060206040518083038186803b1580156129bb57600080fd5b505afa1580156129cf573d6000803e3d6000fd5b505050506040513d60208110156129e557600080fd5b810190808051906020019092919050505060000390506000811315612a0957600080fd5b80838381518110612a1657fe5b602002602001018181525050508080600101915050612901565b50600073__Fixed192x64Math_______________________63137bf7986801000000000000000084510260026040518363ffffffff1660e01b815260040180838152602001826002811115612a8157fe5b60ff1681526020019250505060206040518083038186803b158015612aa557600080fd5b505af4158015612ab9573d6000803e3d6000fd5b505050506040513d6020811015612acf57600080fd5b81019080805190602001909291905050509050600080612af2838588600261328a565b9250509150680100000000000000008281612b0957fe5b048181612b1257fe5b04945050505050919050565b60003073ffffffffffffffffffffffffffffffffffffffff168973ffffffffffffffffffffffffffffffffffffffff161415612b635763bc197c8160e01b9050612b6b565b600060e01b90505b98975050505050505050565b600860009054906101000a900460ff1681565b60075481565b60048181548110612b9d57fe5b906000526020600020016000915090505481565b60055481565b600660009054906101000a900467ffffffffffffffff1681565b612bd96127d9565b612c4b576040517f08c379a00000000000000000000000000000000000000000000000000000000081526004018080602001828103825260208152602001807f4f776e61626c653a2063616c6c6572206973206e6f7420746865206f776e657281525060200191505060405180910390fd5b6001806002811115612c5957fe5b600860009054906101000a900460ff166002811115612c7457fe5b14612c7e57600080fd5b81600660006101000a81548167ffffffffffffffff021916908367ffffffffffffffff1602179055507f43acfe4f4a14c012959016586aee3b318a0a30e17bb8edae05a58d46c80b4199600660009054906101000a900467ffffffffffffffff16604051808267ffffffffffffffff1667ffffffffffffffff16815260200191505060405180910390a15050565b60003073ffffffffffffffffffffffffffffffffffffffff168773ffffffffffffffffffffffffffffffffffffffff161415612d515763f23a6e6160e01b9050612d59565b600060e01b90505b9695505050505050565b612d6b6127d9565b612ddd576040517f08c379a00000000000000000000000000000000000000000000000000000000081526004018080602001828103825260208152602001807f4f776e61626c653a2063616c6c6572206973206e6f7420746865206f776e657281525060200191505060405180910390fd5b612de68161366f565b50565b670de0b6b3a764000081565b6000818301905060008212158015612e0d5750828112155b80612e235750600082128015612e2257508281125b5b612e2957fe5b92915050565b600060016004805490500390505b6000811261302d576060612e6760098381548110612e5757fe5b90600052602060002001546137b3565b905060008090505b600a8381548110612e7c57fe5b906000526020600020018054905081101561301d57600260009054906101000a900473ffffffffffffffffffffffffffffffffffffffff1673ffffffffffffffffffffffffffffffffffffffff166372ce4275600360009054906101000a900473ffffffffffffffffffffffffffffffffffffffff16600a8681548110612eff57fe5b906000526020600020018481548110612f1457fe5b906000526020600020015460048781548110612f2c57fe5b906000526020600020015486896040518663ffffffff1660e01b8152600401808673ffffffffffffffffffffffffffffffffffffffff1673ffffffffffffffffffffffffffffffffffffffff16815260200185815260200184815260200180602001838152602001828103825284818151815260200191508051906020019060200280838360005b83811015612fcf578082015181840152602081019050612fb4565b505050509050019650505050505050600060405180830381600087803b158015612ff857600080fd5b505af115801561300c573d6000803e3d6000fd5b505050508080600101915050612e6f565b5050808060019003915050612e3d565b5050565b60008090505b60048054905081101561322b5760606130666009838154811061305657fe5b90600052602060002001546137b3565b905060008090505b600a838154811061307b57fe5b906000526020600020018054905081101561321c57600260009054906101000a900473ffffffffffffffffffffffffffffffffffffffff1673ffffffffffffffffffffffffffffffffffffffff16639e7212ad600360009054906101000a900473ffffffffffffffffffffffffffffffffffffffff16600a86815481106130fe57fe5b90600052602060002001848154811061311357fe5b90600052602060002001546004878154811061312b57fe5b906000526020600020015486896040518663ffffffff1660e01b8152600401808673ffffffffffffffffffffffffffffffffffffffff1673ffffffffffffffffffffffffffffffffffffffff16815260200185815260200184815260200180602001838152602001828103825284818151815260200191508051906020019060200280838360005b838110156131ce5780820151818401526020810190506131b3565b505050509050019650505050505050600060405180830381600087803b1580156131f757600080fd5b505af115801561320b573d6000803e3d6000fd5b50505050808060010191505061306e565b50508080600101915050613037565b5050565b6000600b828154811061323e57fe5b90600052602060002001549050919050565b60008183039050600082121580156132685750828113155b8061327e575060008212801561327d57508281135b5b61328457fe5b92915050565b60008060008087121580156132a25750600060075412155b6132ab57600080fd5b73__Fixed192x64Math_______________________63ccc13814876040518263ffffffff1660e01b81526004018080602001828103825283818151815260200191508051906020019060200280838360005b838110156133185780820151818401526020810190506132fd565b505050509050019250505060206040518083038186803b15801561333b57600080fd5b505af415801561334f573d6000803e3d6000fd5b505050506040513d602081101561336557600080fd5b8101908080519060200190929190505050915060075461338e88846134f190919063ffffffff16565b8161339557fe5b0591506133b468b800000000000000008361325090919063ffffffff16565b9150600080600090505b87518160ff1610156134e55773__Fixed192x64Math_______________________631d58012361342a866007546134148e8e8860ff16815181106133fe57fe5b60200260200101516134f190919063ffffffff16565b8161341b57fe5b0561325090919063ffffffff16565b886040518363ffffffff1660e01b81526004018083815260200182600281111561345057fe5b60ff1681526020019250505060206040518083038186803b15801561347457600080fd5b505af4158015613488573d6000803e3d6000fd5b505050506040513d602081101561349e57600080fd5b810190808051906020019092919050505091508660ff168160ff1614156134c3578192505b6134d6828661355e90919063ffffffff16565b945080806001019150506133be565b50509450945094915050565b6000808314156135045760009050613558565b81830290507fffffffffffffffffffffffffffffffffffffffffffffffffffffffffffffffff8314158061353d575060ff6001901b8214155b801561355157508183828161354e57fe5b05145b61355757fe5b5b92915050565b6000808284019050838110156135dc576040517f08c379a000000000000000000000000000000000000000000000000000000000815260040180806020018281038252601b8152602001807f536166654d6174683a206164646974696f6e206f766572666c6f77000000000081525060200191505060405180910390fd5b8091505092915050565b60008282111561365e576040517f08c379a000000000000000000000000000000000000000000000000000000000815260040180806020018281038252601e8152602001807f536166654d6174683a207375627472616374696f6e206f766572666c6f77000081525060200191505060405180910390fd5b600082840390508091505092915050565b600073ffffffffffffffffffffffffffffffffffffffff168173ffffffffffffffffffffffffffffffffffffffff1614156136f5576040517f08c379a00000000000000000000000000000000000000000000000000000000081526004018080602001828103825260268152602001806138266026913960400191505060405180910390fd5b8073ffffffffffffffffffffffffffffffffffffffff166000809054906101000a900473ffffffffffffffffffffffffffffffffffffffff1673ffffffffffffffffffffffffffffffffffffffff167f8be0079c531659141344cd1fd0a4f28419497f9722a3daafe3b4186f6b6457e060405160405180910390a3806000806101000a81548173ffffffffffffffffffffffffffffffffffffffff021916908373ffffffffffffffffffffffffffffffffffffffff16021790555050565b6060816040519080825280602002602001820160405280156137e45781602001602082028038833980820191505090505b50905060008090505b8281101561381f57806001901b82828151811061380657fe5b60200260200101818152505080806001019150506137ed565b5091905056fe4f776e61626c653a206e6577206f776e657220697320746865207a65726f20616464726573736f6e6c792077686974656c6973746564207573657273206d61792063616c6c20746869732066756e6374696f6e54686973204d61726b65742068617320616c7265616479206265656e20636c6f736564a265627a7a723158206383f450e190b4e3799697a3f6f88dbe92a086e81600a98db1d03d4b4354c78364736f6c63430005110032",
  "source": "pragma solidity ^0.5.1;\nimport { SafeMath } from \"openzeppelin-solidity/contracts/math/SafeMath.sol\";\nimport { Fixed192x64Math } from \"@gnosis.pm/util-contracts/contracts/Fixed192x64Math.sol\";\nimport { MarketMaker } from \"./MarketMaker.sol\";\n\n/// @title LMSR market maker contract - Calculates share prices based on share distribution and initial funding\n/// @author Alan Lu - <alan.lu@gnosis.pm>\ncontract LMSRMarketMaker is MarketMaker {\n    using SafeMath for uint;\n\n    /*\n     *  Constants\n     */\n    uint constant ONE = 0x10000000000000000;\n    int constant EXP_LIMIT = 3394200909562557497344;\n\n    /// @dev Calculates the net cost for executing a given trade.\n    /// @param outcomeTokenAmounts Amounts of outcome tokens to buy from the market. If an amount is negative, represents an amount to sell to the market.\n    /// @return Net cost of trade. If positive, represents amount of collateral which would be paid to the market for the trade. If negative, represents amount of collateral which would be received from the market for the trade.\n    function calcNetCost(int[] memory outcomeTokenAmounts)\n        public\n        view\n        returns (int netCost)\n    {\n        require(outcomeTokenAmounts.length == atomicOutcomeSlotCount);\n\n        int[] memory otExpNums = new int[](atomicOutcomeSlotCount);\n        for (uint i = 0; i < atomicOutcomeSlotCount; i++) {\n            int balance = int(pmSystem.balanceOf(address(this), generateAtomicPositionId(i)));\n            require(balance >= 0);\n            otExpNums[i] = outcomeTokenAmounts[i].sub(balance);\n        }\n\n        int log2N = Fixed192x64Math.binaryLog(atomicOutcomeSlotCount * ONE, Fixed192x64Math.EstimationMode.UpperBound);\n\n        (uint sum, int offset, ) = sumExpOffset(log2N, otExpNums, 0, Fixed192x64Math.EstimationMode.UpperBound);\n        netCost = Fixed192x64Math.binaryLog(sum, Fixed192x64Math.EstimationMode.UpperBound);\n        netCost = netCost.add(offset);\n        netCost = (netCost.mul(int(ONE)) / log2N).mul(int(funding));\n\n        // Integer division for negative numbers already uses ceiling,\n        // so only check boundary condition for positive numbers\n        if(netCost <= 0 || netCost / int(ONE) * int(ONE) == netCost) {\n            netCost /= int(ONE);\n        } else {\n            netCost = netCost / int(ONE) + 1;\n        }\n    }\n\n    /// @dev Returns marginal price of an outcome\n    /// @param outcomeTokenIndex Index of outcome to determine marginal price of\n    /// @return Marginal price of an outcome as a fixed point number\n    function calcMarginalPrice(uint8 outcomeTokenIndex)\n        public\n        view\n        returns (uint price)\n    {\n        int[] memory negOutcomeTokenBalances = new int[](atomicOutcomeSlotCount);\n        for (uint i = 0; i < atomicOutcomeSlotCount; i++) {\n            int negBalance = -int(pmSystem.balanceOf(address(this), generateAtomicPositionId(i)));\n            require(negBalance <= 0);\n            negOutcomeTokenBalances[i] = negBalance;\n        }\n\n        int log2N = Fixed192x64Math.binaryLog(negOutcomeTokenBalances.length * ONE, Fixed192x64Math.EstimationMode.Midpoint);\n        // The price function is exp(quantities[i]/b) / sum(exp(q/b) for q in quantities)\n        // To avoid overflow, calculate with\n        // exp(quantities[i]/b - offset) / sum(exp(q/b - offset) for q in quantities)\n        (uint sum, , uint outcomeExpTerm) = sumExpOffset(log2N, negOutcomeTokenBalances, outcomeTokenIndex, Fixed192x64Math.EstimationMode.Midpoint);\n        return outcomeExpTerm / (sum / ONE);\n    }\n\n    /*\n     *  Private functions\n     */\n    /// @dev Calculates sum(exp(q/b - offset) for q in quantities), where offset is set\n    ///      so that the sum fits in 248-256 bits\n    /// @param log2N Binary logarithm of the number of outcomes\n    /// @param otExpNums Numerators of the exponents, denoted as q in the aforementioned formula\n    /// @param outcomeIndex Index of exponential term to extract (for use by marginal price function)\n    /// @return A result structure composed of the sum, the offset used, and the summand associated with the supplied index\n    function sumExpOffset(int log2N, int[] memory otExpNums, uint8 outcomeIndex, Fixed192x64Math.EstimationMode estimationMode)\n        private\n        view\n        returns (uint sum, int offset, uint outcomeExpTerm)\n    {\n        // Naive calculation of this causes an overflow\n        // since anything above a bit over 133*ONE supplied to exp will explode\n        // as exp(133) just about fits into 192 bits of whole number data.\n\n        // The choice of this offset is subject to another limit:\n        // computing the inner sum successfully.\n        // Since the index is 8 bits, there has to be 8 bits of headroom for\n        // each summand, meaning q/b - offset <= exponential_limit,\n        // where that limit can be found with `mp.floor(mp.log((2**248 - 1) / ONE) * ONE)`\n        // That is what EXP_LIMIT is set to: it is about 127.5\n\n        // finally, if the distribution looks like [BIG, tiny, tiny...], using a\n        // BIG offset will cause the tiny quantities to go really negative\n        // causing the associated exponentials to vanish.\n\n        require(log2N >= 0 && int(funding) >= 0);\n        offset = Fixed192x64Math.max(otExpNums);\n        offset = offset.mul(log2N) / int(funding);\n        offset = offset.sub(EXP_LIMIT);\n        uint term;\n        for (uint8 i = 0; i < otExpNums.length; i++) {\n            term = Fixed192x64Math.pow2((otExpNums[i].mul(log2N) / int(funding)).sub(offset), estimationMode);\n            if (i == outcomeIndex)\n                outcomeExpTerm = term;\n            sum = sum.add(term);\n        }\n    }\n}\n",
  "sourcePath": "F:\\workhome\\blockchain\\dgov-subgraph\\contracts\\LMSRMarketMaker.sol",
  "compiler": {
    "name": "solc",
    "version": "0.5.17+commit.d19bba13.Emscripten.clang"
  },
  "schemaVersion": "3.4.3",
  "updatedAt": "2021-12-18T17:13:27.610Z",
  "devdoc": {
    "author": "Alan Lu - <alan.lu@gnosis.pm>",
    "methods": {
      "calcMarginalPrice(uint8)": {
        "details": "Returns marginal price of an outcome",
        "params": {
          "outcomeTokenIndex": "Index of outcome to determine marginal price of"
        },
        "return": "Marginal price of an outcome as a fixed point number"
      },
      "calcMarketFee(uint256)": {
        "details": "Calculates fee to be paid to market maker",
        "params": {
          "outcomeTokenCost": "Cost for buying outcome tokens"
        },
        "return": "Fee for trade"
      },
      "calcNetCost(int256[])": {
        "details": "Calculates the net cost for executing a given trade.",
        "params": {
          "outcomeTokenAmounts": "Amounts of outcome tokens to buy from the market. If an amount is negative, represents an amount to sell to the market."
        },
        "return": "Net cost of trade. If positive, represents amount of collateral which would be paid to the market for the trade. If negative, represents amount of collateral which would be received from the market for the trade."
      },
      "changeFunding(int256)": {
        "details": "Allows to fund the market with collateral tokens converting them into outcome tokens Note for the future: should combine splitPosition and mergePositions into one function, as code duplication causes things like this to happen."
      },
      "close()": {
        "details": "Allows market owner to close the markets by transferring all remaining outcome tokens to the owner"
      },
      "isOwner()": {
        "details": "Returns true if the caller is the current owner."
      },
      "owner()": {
        "details": "Returns the address of the current owner."
      },
      "renounceOwnership()": {
        "details": "Leaves the contract without owner. It will not be possible to call `onlyOwner` functions anymore. Can only be called by the current owner.     * > Note: Renouncing ownership will leave the contract without an owner, thereby removing any functionality that is only available to the owner."
      },
      "supportsInterface(bytes4)": {
        "details": "See `IERC165.supportsInterface`.     * Time complexity O(1), guaranteed to always use less than 30 000 gas."
      },
      "trade(int256[],int256)": {
        "details": "Allows to trade outcome tokens and collateral with the market maker",
        "params": {
          "collateralLimit": "If positive, this is the limit for the amount of collateral tokens which will be sent to the market to conduct the trade. If negative, this is the minimum amount of collateral tokens which will be received from the market for the trade. If zero, there is no limit.",
          "outcomeTokenAmounts": "Amounts of each atomic outcome token to buy or sell. If positive, will buy this amount of outcome token from the market. If negative, will sell this amount back to the market instead. The indices of this array range from 0 to product(all conditions' outcomeSlotCounts)-1. For example, with two conditions with three outcome slots each and one condition with two outcome slots, you will have 3*3*2=18 total atomic outcome tokens, and the indices will range from 0 to 17. The indices map to atomic outcome slots depending on the order of the conditionIds. Let's say the first condition has slots A, B, C the second has slots X, Y, and the third has slots I, J, K. We can associate each atomic outcome token with indices by this map: A&X&I == 0 B&X&I == 1 C&X&I == 2 A&Y&I == 3 B&Y&I == 4 C&Y&I == 5 A&X&J == 6 B&X&J == 7 C&X&J == 8 A&Y&J == 9 B&Y&J == 10 C&Y&J == 11 A&X&K == 12 B&X&K == 13 C&X&K == 14 A&Y&K == 15 B&Y&K == 16 C&Y&K == 17 This order is calculated via the generateAtomicPositionId function below: C&Y&I -> (2, 1, 0) -> 2 + 3 * (1 + 2 * (0 + 3 * (0 + 0)))"
        },
        "return": "If positive, the amount of collateral sent to the market. If negative, the amount of collateral received from the market. If zero, no collateral was sent or received."
      },
      "transferOwnership(address)": {
        "details": "Transfers ownership of the contract to a new account (`newOwner`). Can only be called by the current owner."
      },
      "withdrawFees()": {
        "details": "Allows market owner to withdraw fees generated by trades",
        "return": "Fee amount"
      }
    },
    "title": "LMSR market maker contract - Calculates share prices based on share distribution and initial funding"
  },
  "userdoc": {
    "methods": {}
  }
}