{
  "contractName": "LMSRMarketMaker",
  "abi": [
    {
      "anonymous": false,
      "inputs": [],
      "name": "AMMClosed",
      "type": "event"
    },
    {
      "anonymous": false,
      "inputs": [
        {
          "indexed": false,
          "internalType": "uint256",
          "name": "initialFunding",
          "type": "uint256"
        }
      ],
      "name": "AMMCreated",
      "type": "event"
    },
    {
      "anonymous": false,
      "inputs": [
        {
          "indexed": false,
          "internalType": "uint64",
          "name": "newFee",
          "type": "uint64"
        }
      ],
      "name": "AMMFeeChanged",
      "type": "event"
    },
    {
      "anonymous": false,
      "inputs": [
        {
          "indexed": false,
          "internalType": "uint256",
          "name": "fees",
          "type": "uint256"
        }
      ],
      "name": "AMMFeeWithdrawal",
      "type": "event"
    },
    {
      "anonymous": false,
      "inputs": [
        {
          "indexed": false,
          "internalType": "int256",
          "name": "fundingChange",
          "type": "int256"
        }
      ],
      "name": "AMMFundingChanged",
      "type": "event"
    },
    {
      "anonymous": false,
      "inputs": [
        {
          "indexed": true,
          "internalType": "address",
          "name": "transactor",
          "type": "address"
        },
        {
          "indexed": false,
          "internalType": "int256[]",
          "name": "outcomeTokenAmounts",
          "type": "int256[]"
        },
        {
          "indexed": false,
          "internalType": "int256",
          "name": "outcomeTokenNetCost",
          "type": "int256"
        },
        {
          "indexed": false,
          "internalType": "uint256",
          "name": "marketFees",
          "type": "uint256"
        }
      ],
      "name": "AMMOutcomeTokenTrade",
      "type": "event"
    },
    {
      "anonymous": false,
      "inputs": [],
      "name": "AMMPaused",
      "type": "event"
    },
    {
      "anonymous": false,
      "inputs": [],
      "name": "AMMResumed",
      "type": "event"
    },
    {
      "anonymous": false,
      "inputs": [
        {
          "indexed": true,
          "internalType": "address",
          "name": "previousOwner",
          "type": "address"
        },
        {
          "indexed": true,
          "internalType": "address",
          "name": "newOwner",
          "type": "address"
        }
      ],
      "name": "OwnershipTransferred",
      "type": "event"
    },
    {
      "constant": true,
      "inputs": [],
      "name": "FEE_RANGE",
      "outputs": [
        {
          "internalType": "uint64",
          "name": "",
          "type": "uint64"
        }
      ],
      "payable": false,
      "stateMutability": "view",
      "type": "function"
    },
    {
      "constant": true,
      "inputs": [],
      "name": "atomicOutcomeSlotCount",
      "outputs": [
        {
          "internalType": "uint256",
          "name": "",
          "type": "uint256"
        }
      ],
      "payable": false,
      "stateMutability": "view",
      "type": "function"
    },
    {
      "constant": true,
      "inputs": [
        {
          "internalType": "uint256",
          "name": "outcomeTokenCost",
          "type": "uint256"
        }
      ],
      "name": "calcMarketFee",
      "outputs": [
        {
          "internalType": "uint256",
          "name": "",
          "type": "uint256"
        }
      ],
      "payable": false,
      "stateMutability": "view",
      "type": "function"
    },
    {
      "constant": false,
      "inputs": [
        {
          "internalType": "uint64",
          "name": "_fee",
          "type": "uint64"
        }
      ],
      "name": "changeFee",
      "outputs": [],
      "payable": false,
      "stateMutability": "nonpayable",
      "type": "function"
    },
    {
      "constant": false,
      "inputs": [
        {
          "internalType": "int256",
          "name": "fundingChange",
          "type": "int256"
        }
      ],
      "name": "changeFunding",
      "outputs": [],
      "payable": false,
      "stateMutability": "nonpayable",
      "type": "function"
    },
    {
      "constant": false,
      "inputs": [],
      "name": "close",
      "outputs": [],
      "payable": false,
      "stateMutability": "nonpayable",
      "type": "function"
    },
    {
      "constant": true,
      "inputs": [],
      "name": "collateralToken",
      "outputs": [
        {
          "internalType": "contract YAKIPoint",
          "name": "",
          "type": "address"
        }
      ],
      "payable": false,
      "stateMutability": "view",
      "type": "function"
    },
    {
      "constant": true,
      "inputs": [
        {
          "internalType": "uint256",
          "name": "",
          "type": "uint256"
        }
      ],
      "name": "conditionIds",
      "outputs": [
        {
          "internalType": "bytes32",
          "name": "",
          "type": "bytes32"
        }
      ],
      "payable": false,
      "stateMutability": "view",
      "type": "function"
    },
    {
      "constant": true,
      "inputs": [],
      "name": "fee",
      "outputs": [
        {
          "internalType": "uint64",
          "name": "",
          "type": "uint64"
        }
      ],
      "payable": false,
      "stateMutability": "view",
      "type": "function"
    },
    {
      "constant": true,
      "inputs": [],
      "name": "funding",
      "outputs": [
        {
          "internalType": "uint256",
          "name": "",
          "type": "uint256"
        }
      ],
      "payable": false,
      "stateMutability": "view",
      "type": "function"
    },
    {
      "constant": true,
      "inputs": [],
      "name": "isOwner",
      "outputs": [
        {
          "internalType": "bool",
          "name": "",
          "type": "bool"
        }
      ],
      "payable": false,
      "stateMutability": "view",
      "type": "function"
    },
    {
      "constant": false,
      "inputs": [
        {
          "internalType": "address",
          "name": "_operator",
          "type": "address"
        },
        {
          "internalType": "address",
          "name": "",
          "type": "address"
        },
        {
          "internalType": "uint256[]",
          "name": "",
          "type": "uint256[]"
        },
        {
          "internalType": "uint256[]",
          "name": "",
          "type": "uint256[]"
        },
        {
          "internalType": "bytes",
          "name": "",
          "type": "bytes"
        }
      ],
      "name": "onERC1155BatchReceived",
      "outputs": [
        {
          "internalType": "bytes4",
          "name": "",
          "type": "bytes4"
        }
      ],
      "payable": false,
      "stateMutability": "nonpayable",
      "type": "function"
    },
    {
      "constant": false,
      "inputs": [
        {
          "internalType": "address",
          "name": "operator",
          "type": "address"
        },
        {
          "internalType": "address",
          "name": "",
          "type": "address"
        },
        {
          "internalType": "uint256",
          "name": "",
          "type": "uint256"
        },
        {
          "internalType": "uint256",
          "name": "",
          "type": "uint256"
        },
        {
          "internalType": "bytes",
          "name": "",
          "type": "bytes"
        }
      ],
      "name": "onERC1155Received",
      "outputs": [
        {
          "internalType": "bytes4",
          "name": "",
          "type": "bytes4"
        }
      ],
      "payable": false,
      "stateMutability": "nonpayable",
      "type": "function"
    },
    {
      "constant": true,
      "inputs": [],
      "name": "owner",
      "outputs": [
        {
          "internalType": "address",
          "name": "",
          "type": "address"
        }
      ],
      "payable": false,
      "stateMutability": "view",
      "type": "function"
    },
    {
      "constant": false,
      "inputs": [],
      "name": "pause",
      "outputs": [],
      "payable": false,
      "stateMutability": "nonpayable",
      "type": "function"
    },
    {
      "constant": true,
      "inputs": [],
      "name": "pmSystem",
      "outputs": [
        {
          "internalType": "contract ConditionalTokens",
          "name": "",
          "type": "address"
        }
      ],
      "payable": false,
      "stateMutability": "view",
      "type": "function"
    },
    {
      "constant": false,
      "inputs": [],
      "name": "renounceOwnership",
      "outputs": [],
      "payable": false,
      "stateMutability": "nonpayable",
      "type": "function"
    },
    {
      "constant": false,
      "inputs": [],
      "name": "resume",
      "outputs": [],
      "payable": false,
      "stateMutability": "nonpayable",
      "type": "function"
    },
    {
      "constant": true,
      "inputs": [],
      "name": "stage",
      "outputs": [
        {
          "internalType": "enum MarketMaker.Stage",
          "name": "",
          "type": "uint8"
        }
      ],
      "payable": false,
      "stateMutability": "view",
      "type": "function"
    },
    {
      "constant": true,
      "inputs": [
        {
          "internalType": "bytes4",
          "name": "interfaceId",
          "type": "bytes4"
        }
      ],
      "name": "supportsInterface",
      "outputs": [
        {
          "internalType": "bool",
          "name": "",
          "type": "bool"
        }
      ],
      "payable": false,
      "stateMutability": "view",
      "type": "function"
    },
    {
      "constant": false,
      "inputs": [
        {
          "internalType": "int256[]",
          "name": "outcomeTokenAmounts",
          "type": "int256[]"
        },
        {
          "internalType": "int256",
          "name": "collateralLimit",
          "type": "int256"
        }
      ],
      "name": "trade",
      "outputs": [
        {
          "internalType": "int256",
          "name": "netCost",
          "type": "int256"
        }
      ],
      "payable": false,
      "stateMutability": "nonpayable",
      "type": "function"
    },
    {
      "constant": false,
      "inputs": [
        {
          "internalType": "address",
          "name": "newOwner",
          "type": "address"
        }
      ],
      "name": "transferOwnership",
      "outputs": [],
      "payable": false,
      "stateMutability": "nonpayable",
      "type": "function"
    },
    {
      "constant": true,
      "inputs": [],
      "name": "whitelist",
      "outputs": [
        {
          "internalType": "contract Whitelist",
          "name": "",
          "type": "address"
        }
      ],
      "payable": false,
      "stateMutability": "view",
      "type": "function"
    },
    {
      "constant": false,
      "inputs": [],
      "name": "withdrawFees",
      "outputs": [
        {
          "internalType": "uint256",
          "name": "fees",
          "type": "uint256"
        }
      ],
      "payable": false,
      "stateMutability": "nonpayable",
      "type": "function"
    },
    {
      "constant": true,
      "inputs": [
        {
          "internalType": "int256[]",
          "name": "outcomeTokenAmounts",
          "type": "int256[]"
        }
      ],
      "name": "calcNetCost",
      "outputs": [
        {
          "internalType": "int256",
          "name": "netCost",
          "type": "int256"
        }
      ],
      "payable": false,
      "stateMutability": "view",
      "type": "function"
    },
    {
      "constant": true,
      "inputs": [
        {
          "internalType": "uint8",
          "name": "outcomeTokenIndex",
          "type": "uint8"
        }
      ],
      "name": "calcMarginalPrice",
      "outputs": [
        {
          "internalType": "uint256",
          "name": "price",
          "type": "uint256"
        }
      ],
      "payable": false,
      "stateMutability": "view",
      "type": "function"
    }
  ],
  "bytecode": "0x60806040819052600080546001600160a01b03191633178082556001600160a01b0316917f8be0079c531659141344cd1fd0a4f28419497f9722a3daafe3b4186f6b6457e0908290a3620000636301ffc9a760e01b6001600160e01b036200008416565b6200007e630271189760e51b6001600160e01b036200008416565b6200010c565b6001600160e01b03198082161415620000e4576040805162461bcd60e51b815260206004820152601c60248201527f4552433136353a20696e76616c696420696e7465726661636520696400000000604482015290519081900360640190fd5b6001600160e01b0319166000908152600160208190526040909120805460ff19169091179055565b612642806200011c6000396000f3fe608060405234801561001057600080fd5b506004361061018e5760003560e01c8063b0011509116100de578063d8c55af711610097578063e7f3378911610071578063e7f33789146105ae578063f23a6e61146105d5578063f2fde38b14610668578063fbde47f61461068e5761018e565b8063d8c55af714610564578063dd83bad214610581578063ddca3f43146105895761018e565b8063b0011509146103a7578063b2016bd4146103c4578063b20f8e7f146103cc578063bc197c81146103ec578063c040e6b814610530578063cb4c86b71461055c5761018e565b8063715018a61161014b57806387f39a5c1161012557806387f39a5c146103725780638da5cb5b1461038f5780638f32d59b1461039757806393e59dc11461039f5761018e565b8063715018a6146102c1578063782d085b146102c95780638456cb591461036a5761018e565b806301ffc9a714610193578063046f7da2146101ce57806305be8b2c146101d857806315bd7611146101fc57806343d726d6146102b1578063476343ee146102b9575b600080fd5b6101ba600480360360208110156101a957600080fd5b50356001600160e01b031916610696565b604080519115158252519081900360200190f35b6101d66106b5565b005b6101e0610750565b604080516001600160a01b039092168252519081900360200190f35b61029f6004803603604081101561021257600080fd5b810190602081018135600160201b81111561022c57600080fd5b82018360208201111561023e57600080fd5b803590602001918460208302840111600160201b8311171561025f57600080fd5b919080806020026020016040519081016040528093929190818152602001838360200280828437600092019190915250929550509135925061075f915050565b60408051918252519081900360200190f35b6101d6610e96565b61029f6110be565b6101d6611255565b61029f600480360360208110156102df57600080fd5b810190602081018135600160201b8111156102f957600080fd5b82018360208201111561030b57600080fd5b803590602001918460208302840111600160201b8311171561032c57600080fd5b9190808060200260200160405190810160405280939291908181526020018383602002808284376000920191909152509295506112e6945050505050565b6101d66115e4565b6101d66004803603602081101561038857600080fd5b5035611682565b6101e06119b9565b6101ba6119c8565b6101e06119d9565b61029f600480360360208110156103bd57600080fd5b50356119ed565b6101e0611a0d565b61029f600480360360208110156103e257600080fd5b503560ff16611a1c565b610513600480360360a081101561040257600080fd5b6001600160a01b038235811692602081013590911691810190606081016040820135600160201b81111561043557600080fd5b82018360208201111561044757600080fd5b803590602001918460208302840111600160201b8311171561046857600080fd5b919390929091602081019035600160201b81111561048557600080fd5b82018360208201111561049757600080fd5b803590602001918460208302840111600160201b831117156104b857600080fd5b919390929091602081019035600160201b8111156104d557600080fd5b8201836020820111156104e757600080fd5b803590602001918460018302840111600160201b8311171561050857600080fd5b509092509050611bfa565b604080516001600160e01b03199092168252519081900360200190f35b610538611c2b565b6040518082600281111561054857fe5b60ff16815260200191505060405180910390f35b61029f611c34565b61029f6004803603602081101561057a57600080fd5b5035611c3a565b61029f611c58565b610591611c5e565b6040805167ffffffffffffffff9092168252519081900360200190f35b6101d6600480360360208110156105c457600080fd5b503567ffffffffffffffff16611c6e565b610513600480360360a08110156105eb57600080fd5b6001600160a01b03823581169260208101359091169160408201359160608101359181019060a081016080820135600160201b81111561062a57600080fd5b82018360208201111561063c57600080fd5b803590602001918460018302840111600160201b8311171561065d57600080fd5b509092509050611d30565b6101d66004803603602081101561067e57600080fd5b50356001600160a01b0316611d5f565b610591611db2565b6001600160e01b03191660009081526001602052604090205460ff1690565b6106bd6119c8565b6106fc576040805162461bcd60e51b815260206004820181905260248201526000805160206125cb833981519152604482015290519081900360640190fd5b60018060085460ff16600281111561071057fe5b1461071a57600080fd5b6008805460ff191690556040517fb0cf596e1402e50b88a6d1097918e48922e4a2878ece11d7bb51b5d81cf6c17890600090a150565b6002546001600160a01b031681565b6000808060085460ff16600281111561077457fe5b1461077e57600080fd5b60085461010090046001600160a01b03161580610812575060085460408051633af32abf60e01b815233600482015290516101009092046001600160a01b031691633af32abf91602480820192602092909190829003018186803b1580156107e557600080fd5b505afa1580156107f9573d6000803e3d6000fd5b505050506040513d602081101561080f57600080fd5b50515b61084d5760405162461bcd60e51b815260040180806020018281038252602d81526020018061259e602d913960400191505060405180910390fd5b60055484511461085c57600080fd5b6000610867856112e6565b90506000808212156108865761087f826000036119ed565b9050610892565b61088f826119ed565b90505b60008112156108a057600080fd5b6108b0828263ffffffff611dbe16565b935084158015906108c15750848413155b806108ca575084155b6108d357600080fd5b6000821315610a015760035460408051635686cf6360e01b81523360048201523060248201526044810187905290516001600160a01b0390921691635686cf63916064808201926020929091908290030181600087803b15801561093657600080fd5b505af115801561094a573d6000803e3d6000fd5b505050506040513d602081101561096057600080fd5b505180156109ef575060035460025460408051638b73f04360e01b81526001600160a01b0392831660048201526024810186905290519190921691638b73f0439160448083019260209291908290030181600087803b1580156109c257600080fd5b505af11580156109d6573d6000803e3d6000fd5b505050506040513d60208110156109ec57600080fd5b50515b6109f857600080fd5b610a0182611df3565b60008090506060600554604051908082528060200260200182016040528015610a34578160200160208202803883390190505b50905060005b600554811015610a9c576000898281518110610a5257fe5b60200260200101511215610a945760019250888181518110610a7057fe5b6020026020010151600003828281518110610a8757fe5b6020026020010181815250505b600101610a3a565b508115610bb557600254604051631759616b60e11b81523360048201818152306024840181905260a060448501908152600b805460a487018190526001600160a01b0390971696632eb2c2d696939491938993916064820191608481019160c49091019087908015610b2d57602002820191906000526020600020905b815481526020019060010190808311610b19575b50508481038352855181528551602091820191808801910280838360005b83811015610b63578181015183820152602001610b4b565b50505050905001848103825260008152602001602001975050505050505050600060405180830381600087803b158015610b9c57600080fd5b505af1158015610bb0573d6000803e3d6000fd5b505050505b6000841215610bca57610bca84600003611f7e565b336001600160a01b03167fda7ff5556ce7ecfcf06296f03426e8c02a7305b85cfd88816a32f7f4969051778986866040518080602001848152602001838152602001828103825285818151815260200191508051906020019060200280838360005b83811015610c44578181015183820152602001610c2c565b5050505090500194505050505060405180910390a260009150815b600554811015610cdd576000898281518110610c7757fe5b60200260200101511315610cba5760019250888181518110610c9557fe5b6020026020010151828281518110610ca957fe5b602002602001018181525050610cd5565b6000828281518110610cc857fe5b6020026020010181815250505b600101610c5f565b508115610df657600254604051631759616b60e11b81523060048201818152336024840181905260a060448501908152600b805460a487018190526001600160a01b0390971696632eb2c2d696939491938993916064820191608481019160c49091019087908015610d6e57602002820191906000526020600020905b815481526020019060010190808311610d5a575b50508481038352855181528551602091820191808801910280838360005b83811015610da4578181015183820152602001610d8c565b50505050905001848103825260008152602001602001975050505050505050600060405180830381600087803b158015610ddd57600080fd5b505af1158015610df1573d6000803e3d6000fd5b505050505b6000861215610e8b576003546040805162ad79ff60e11b81523360048201526000898103602483015291516001600160a01b039093169263015af3fe92604480840193602093929083900390910190829087803b158015610e5657600080fd5b505af1158015610e6a573d6000803e3d6000fd5b505050506040513d6020811015610e8057600080fd5b5051610e8b57600080fd5b505050505092915050565b610e9e6119c8565b610edd576040805162461bcd60e51b815260206004820181905260248201526000805160206125cb833981519152604482015290519081900360640190fd5b600060085460ff166002811115610ef057fe5b1480610f0c5750600160085460ff166002811115610f0a57fe5b145b610f475760405162461bcd60e51b81526004018080602001828103825260238152602001806125eb6023913960400191505060405180910390fd5b60005b600554811015611085576000610f5f826120f5565b6002549091506001600160a01b031663f242432a30610f7c6119b9565b60025460408051627eeac760e11b815230600482015260248101889052905187926001600160a01b03169162fdd58e916044808301926020929190829003018186803b158015610fcb57600080fd5b505afa158015610fdf573d6000803e3d6000fd5b505050506040513d6020811015610ff557600080fd5b5051604080516001600160e01b031960e088901b1681526001600160a01b0395861660048201529390941660248401526044830191909152606482015260a06084820152600060a48201819052915160e4808301939282900301818387803b15801561106057600080fd5b505af1158015611074573d6000803e3d6000fd5b505060019093019250610f4a915050565b506008805460ff191660021790556040517f6e18b1b14477b5922c6efa82206ed0e3b73c2500e8d1528c9a6e17554ea1255490600090a1565b60006110c86119c8565b611107576040805162461bcd60e51b815260206004820181905260248201526000805160206125cb833981519152604482015290519081900360640190fd5b6003546040805163990eb8cd60e01b815230600482015290516001600160a01b039092169163990eb8cd91602480820192602092909190829003018186803b15801561115257600080fd5b505afa158015611166573d6000803e3d6000fd5b505050506040513d602081101561117c57600080fd5b50516003549091506001600160a01b031663015af3fe61119a6119b9565b836040518363ffffffff1660e01b815260040180836001600160a01b03166001600160a01b0316815260200182815260200192505050602060405180830381600087803b1580156111ea57600080fd5b505af11580156111fe573d6000803e3d6000fd5b505050506040513d602081101561121457600080fd5b505161121f57600080fd5b6040805182815290517fce1d35d26fbf6b3cc5cd924de10b5a52b08e484129ea7d93abc48d739fffe5b99181900360200190a190565b61125d6119c8565b61129c576040805162461bcd60e51b815260206004820181905260248201526000805160206125cb833981519152604482015290519081900360640190fd5b600080546040516001600160a01b03909116907f8be0079c531659141344cd1fd0a4f28419497f9722a3daafe3b4186f6b6457e0908390a3600080546001600160a01b0319169055565b60006005548251146112f757600080fd5b6060600554604051908082528060200260200182016040528015611325578160200160208202803883390190505b50905060005b600554811015611421576002546000906001600160a01b031662fdd58e30611352856120f5565b6040518363ffffffff1660e01b815260040180836001600160a01b03166001600160a01b031681526020018281526020019250505060206040518083038186803b15801561139f57600080fd5b505afa1580156113b3573d6000803e3d6000fd5b505050506040513d60208110156113c957600080fd5b5051905060008112156113db57600080fd5b611401818684815181106113eb57fe5b602002602001015161211690919063ffffffff16565b83838151811061140d57fe5b60209081029190910101525060010161132b565b50600073__Fixed192x64Math_______________________63137bf798600160401b6005540260016040518363ffffffff1660e01b81526004018083815260200182600281111561146e57fe5b60ff1681526020019250505060206040518083038186803b15801561149257600080fd5b505af41580156114a6573d6000803e3d6000fd5b505050506040513d60208110156114bc57600080fd5b505190506000806114d08385836001612144565b506040805163026f7ef360e31b81526004810184905260016024820152905192945090925073__Fixed192x64Math_______________________9163137bf79891604480820192602092909190829003018186803b15801561153157600080fd5b505af4158015611545573d6000803e3d6000fd5b505050506040513d602081101561155b57600080fd5b5051945061156f858263ffffffff611dbe16565b6007549095506115a2908461158e88600160401b63ffffffff61237416565b8161159557fe5b059063ffffffff61237416565b94506000851315806115bb575084600160401b80820502145b156115ce57600160401b850594506115db565b600160401b850560010194505b50505050919050565b6115ec6119c8565b61162b576040805162461bcd60e51b815260206004820181905260248201526000805160206125cb833981519152604482015290519081900360640190fd5b60008060085460ff16600281111561163f57fe5b1461164957600080fd5b6008805460ff191660011790556040517fbb11914e7a395f00cf0920fe85f50088bd8d7681529fb0bd3c27ccb45a8bcd8f90600090a150565b61168a6119c8565b6116c9576040805162461bcd60e51b815260206004820181905260248201526000805160206125cb833981519152604482015290519081900360640190fd5b60018060085460ff1660028111156116dd57fe5b146116e757600080fd5b81611739576040805162461bcd60e51b815260206004820152601f60248201527f66756e64696e67206368616e6765206d757374206265206e6f6e2d7a65726f00604482015290519081900360640190fd5b60008213156118b15760035460408051635686cf6360e01b81523360048201523060248201526044810185905290516001600160a01b0390921691635686cf63916064808201926020929091908290030181600087803b15801561179c57600080fd5b505af11580156117b0573d6000803e3d6000fd5b505050506040513d60208110156117c657600080fd5b50518015611855575060035460025460408051638b73f04360e01b81526001600160a01b0392831660048201526024810186905290519190921691638b73f0439160448083019260209291908290030181600087803b15801561182857600080fd5b505af115801561183c573d6000803e3d6000fd5b505050506040513d602081101561185257600080fd5b50515b61185e57600080fd5b61186782611df3565b60075461187a908363ffffffff6123b516565b6007556040805183815290517fc55e9a33fb8b1de5318b5c7b96a32937e54006c82000b2c468ed1fb9f73f67999181900360200190a15b60008212156119b5576118c682600003611f7e565b6007546118dd90600084900363ffffffff61241616565b6007556003546001600160a01b031663015af3fe6118f96119b9565b846000036040518363ffffffff1660e01b815260040180836001600160a01b03166001600160a01b0316815260200182815260200192505050602060405180830381600087803b15801561194c57600080fd5b505af1158015611960573d6000803e3d6000fd5b505050506040513d602081101561197657600080fd5b505161198157600080fd5b6040805183815290517fc55e9a33fb8b1de5318b5c7b96a32937e54006c82000b2c468ed1fb9f73f67999181900360200190a15b5050565b6000546001600160a01b031690565b6000546001600160a01b0316331490565b60085461010090046001600160a01b031681565b600654670de0b6b3a764000067ffffffffffffffff909116919091020490565b6003546001600160a01b031681565b60006060600554604051908082528060200260200182016040528015611a4c578160200160208202803883390190505b50905060005b600554811015611b26576002546000906001600160a01b031662fdd58e30611a79856120f5565b6040518363ffffffff1660e01b815260040180836001600160a01b03166001600160a01b031681526020018281526020019250505060206040518083038186803b158015611ac657600080fd5b505afa158015611ada573d6000803e3d6000fd5b505050506040513d6020811015611af057600080fd5b505160009081039150811315611b0557600080fd5b80838381518110611b1257fe5b602090810291909101015250600101611a52565b50600073__Fixed192x64Math_______________________63137bf798600160401b84510260026040518363ffffffff1660e01b815260040180838152602001826002811115611b7257fe5b60ff1681526020019250505060206040518083038186803b158015611b9657600080fd5b505af4158015611baa573d6000803e3d6000fd5b505050506040513d6020811015611bc057600080fd5b50519050600080611bd48385886002612144565b9250509150600160401b8281611be657fe5b048181611bef57fe5b049695505050505050565b60006001600160a01b038916301415611c1b575063bc197c8160e01b611c1f565b5060005b98975050505050505050565b60085460ff1681565b60075481565b60048181548110611c4757fe5b600091825260209091200154905081565b60055481565b60065467ffffffffffffffff1681565b611c766119c8565b611cb5576040805162461bcd60e51b815260206004820181905260248201526000805160206125cb833981519152604482015290519081900360640190fd5b60018060085460ff166002811115611cc957fe5b14611cd357600080fd5b6006805467ffffffffffffffff191667ffffffffffffffff848116919091179182905560408051929091168252517f43acfe4f4a14c012959016586aee3b318a0a30e17bb8edae05a58d46c80b4199916020908290030190a15050565b60006001600160a01b038716301415611d51575063f23a6e6160e01b611d55565b5060005b9695505050505050565b611d676119c8565b611da6576040805162461bcd60e51b815260206004820181905260248201526000805160206125cb833981519152604482015290519081900360640190fd5b611daf81612473565b50565b670de0b6b3a764000081565b81810160008212801590611dd25750828112155b80611de75750600082128015611de757508281125b611ded57fe5b92915050565b600454600019015b600081126119b5576060611e2560098381548110611e1557fe5b9060005260206000200154612513565b905060005b600a8381548110611e3757fe5b600091825260209091200154811015611f7357600254600354600a80546001600160a01b03938416936372ce42759316919087908110611e7357fe5b906000526020600020018481548110611e8857fe5b906000526020600020015460048781548110611ea057fe5b906000526020600020015486896040518663ffffffff1660e01b815260040180866001600160a01b03166001600160a01b0316815260200185815260200184815260200180602001838152602001828103825284818151815260200191508051906020019060200280838360005b83811015611f26578181015183820152602001611f0e565b505050509050019650505050505050600060405180830381600087803b158015611f4f57600080fd5b505af1158015611f63573d6000803e3d6000fd5b505060019092019150611e2a9050565b505060001901611dfb565b60005b6004548110156119b5576060611f9d60098381548110611e1557fe5b905060005b600a8381548110611faf57fe5b6000918252602090912001548110156120eb57600254600354600a80546001600160a01b0393841693639e7212ad9316919087908110611feb57fe5b90600052602060002001848154811061200057fe5b90600052602060002001546004878154811061201857fe5b906000526020600020015486896040518663ffffffff1660e01b815260040180866001600160a01b03166001600160a01b0316815260200185815260200184815260200180602001838152602001828103825284818151815260200191508051906020019060200280838360005b8381101561209e578181015183820152602001612086565b505050509050019650505050505050600060405180830381600087803b1580156120c757600080fd5b505af11580156120db573d6000803e3d6000fd5b505060019092019150611fa29050565b5050600101611f81565b6000600b828154811061210457fe5b90600052602060002001549050919050565b8082036000821280159061212a5750828113155b80611de75750600082128015611de75750828113611ded57fe5b600080600080871215801561215c5750600060075412155b61216557600080fd5b6040516333304e0560e21b815260206004820181815288516024840152885173__Fixed192x64Math_______________________9363ccc13814938b9392839260440191808601910280838360005b838110156121cc5781810151838201526020016121b4565b505050509050019250505060206040518083038186803b1580156121ef57600080fd5b505af4158015612203573d6000803e3d6000fd5b505050506040513d602081101561221957600080fd5b5051600754909250612231838963ffffffff61237416565b8161223857fe5b0591506122548268b8000000000000000063ffffffff61211616565b91506000805b87518160ff1610156123685773__Fixed192x64Math_______________________631d5801236122c4866007546122b08e8e8860ff168151811061229a57fe5b602002602001015161237490919063ffffffff16565b816122b757fe5b059063ffffffff61211616565b886040518363ffffffff1660e01b8152600401808381526020018260028111156122ea57fe5b60ff1681526020019250505060206040518083038186803b15801561230e57600080fd5b505af4158015612322573d6000803e3d6000fd5b505050506040513d602081101561233857600080fd5b5051915060ff818116908816141561234e578192505b61235e858363ffffffff6123b516565b945060010161225a565b50509450945094915050565b60008261238357506000611ded565b508181026000198314158061239c5750600160ff1b8214155b8015611de75750818382816123ad57fe5b0514611ded57fe5b60008282018381101561240f576040805162461bcd60e51b815260206004820152601b60248201527f536166654d6174683a206164646974696f6e206f766572666c6f770000000000604482015290519081900360640190fd5b9392505050565b60008282111561246d576040805162461bcd60e51b815260206004820152601e60248201527f536166654d6174683a207375627472616374696f6e206f766572666c6f770000604482015290519081900360640190fd5b50900390565b6001600160a01b0381166124b85760405162461bcd60e51b81526004018080602001828103825260268152602001806125786026913960400191505060405180910390fd5b600080546040516001600160a01b03808516939216917f8be0079c531659141344cd1fd0a4f28419497f9722a3daafe3b4186f6b6457e091a3600080546001600160a01b0319166001600160a01b0392909216919091179055565b60608160405190808252806020026020018201604052801561253f578160200160208202803883390190505b50905060005b8281101561257157806001901b82828151811061255e57fe5b6020908102919091010152600101612545565b5091905056fe4f776e61626c653a206e6577206f776e657220697320746865207a65726f20616464726573736f6e6c792077686974656c6973746564207573657273206d61792063616c6c20746869732066756e6374696f6e4f776e61626c653a2063616c6c6572206973206e6f7420746865206f776e657254686973204d61726b65742068617320616c7265616479206265656e20636c6f736564a265627a7a72315820a5c78af3e469d955f0e825ba7dd01f64c2f6ea30b92ea506203798f6146866aa64736f6c63430005110032",
  "source": "pragma solidity ^0.5.1;\r\nimport { SafeMath } from \"openzeppelin-solidity/contracts/math/SafeMath.sol\";\r\nimport { Fixed192x64Math } from \"@gnosis.pm/util-contracts/contracts/Fixed192x64Math.sol\";\r\nimport { MarketMaker } from \"./MarketMaker.sol\";\r\n\r\n/// @title LMSR market maker contract - Calculates share prices based on share distribution and initial funding\r\n/// @author Alan Lu - <alan.lu@gnosis.pm>\r\ncontract LMSRMarketMaker is MarketMaker {\r\n    using SafeMath for uint;\r\n\r\n    /*\r\n     *  Constants\r\n     */\r\n    uint constant ONE = 0x10000000000000000;\r\n    int constant EXP_LIMIT = 3394200909562557497344;\r\n\r\n    /// @dev Calculates the net cost for executing a given trade.\r\n    /// @param outcomeTokenAmounts Amounts of outcome tokens to buy from the market. If an amount is negative, represents an amount to sell to the market.\r\n    /// @return Net cost of trade. If positive, represents amount of collateral which would be paid to the market for the trade. If negative, represents amount of collateral which would be received from the market for the trade.\r\n    function calcNetCost(int[] memory outcomeTokenAmounts)\r\n        public\r\n        view\r\n        returns (int netCost)\r\n    {\r\n        require(outcomeTokenAmounts.length == atomicOutcomeSlotCount);\r\n\r\n        int[] memory otExpNums = new int[](atomicOutcomeSlotCount);\r\n        for (uint i = 0; i < atomicOutcomeSlotCount; i++) {\r\n            int balance = int(pmSystem.balanceOf(address(this), generateAtomicPositionId(i)));\r\n            require(balance >= 0);\r\n            otExpNums[i] = outcomeTokenAmounts[i].sub(balance);\r\n        }\r\n\r\n        int log2N = Fixed192x64Math.binaryLog(atomicOutcomeSlotCount * ONE, Fixed192x64Math.EstimationMode.UpperBound);\r\n\r\n        (uint sum, int offset, ) = sumExpOffset(log2N, otExpNums, 0, Fixed192x64Math.EstimationMode.UpperBound);\r\n        netCost = Fixed192x64Math.binaryLog(sum, Fixed192x64Math.EstimationMode.UpperBound);\r\n        netCost = netCost.add(offset);\r\n        netCost = (netCost.mul(int(ONE)) / log2N).mul(int(funding));\r\n\r\n        // Integer division for negative numbers already uses ceiling,\r\n        // so only check boundary condition for positive numbers\r\n        if(netCost <= 0 || netCost / int(ONE) * int(ONE) == netCost) {\r\n            netCost /= int(ONE);\r\n        } else {\r\n            netCost = netCost / int(ONE) + 1;\r\n        }\r\n    }\r\n\r\n    /// @dev Returns marginal price of an outcome\r\n    /// @param outcomeTokenIndex Index of outcome to determine marginal price of\r\n    /// @return Marginal price of an outcome as a fixed point number\r\n    function calcMarginalPrice(uint8 outcomeTokenIndex)\r\n        public\r\n        view\r\n        returns (uint price)\r\n    {\r\n        int[] memory negOutcomeTokenBalances = new int[](atomicOutcomeSlotCount);\r\n        for (uint i = 0; i < atomicOutcomeSlotCount; i++) {\r\n            int negBalance = -int(pmSystem.balanceOf(address(this), generateAtomicPositionId(i)));\r\n            require(negBalance <= 0);\r\n            negOutcomeTokenBalances[i] = negBalance;\r\n        }\r\n\r\n        int log2N = Fixed192x64Math.binaryLog(negOutcomeTokenBalances.length * ONE, Fixed192x64Math.EstimationMode.Midpoint);\r\n        // The price function is exp(quantities[i]/b) / sum(exp(q/b) for q in quantities)\r\n        // To avoid overflow, calculate with\r\n        // exp(quantities[i]/b - offset) / sum(exp(q/b - offset) for q in quantities)\r\n        (uint sum, , uint outcomeExpTerm) = sumExpOffset(log2N, negOutcomeTokenBalances, outcomeTokenIndex, Fixed192x64Math.EstimationMode.Midpoint);\r\n        return outcomeExpTerm / (sum / ONE);\r\n    }\r\n\r\n    /*\r\n     *  Private functions\r\n     */\r\n    /// @dev Calculates sum(exp(q/b - offset) for q in quantities), where offset is set\r\n    ///      so that the sum fits in 248-256 bits\r\n    /// @param log2N Binary logarithm of the number of outcomes\r\n    /// @param otExpNums Numerators of the exponents, denoted as q in the aforementioned formula\r\n    /// @param outcomeIndex Index of exponential term to extract (for use by marginal price function)\r\n    /// @return A result structure composed of the sum, the offset used, and the summand associated with the supplied index\r\n    function sumExpOffset(int log2N, int[] memory otExpNums, uint8 outcomeIndex, Fixed192x64Math.EstimationMode estimationMode)\r\n        private\r\n        view\r\n        returns (uint sum, int offset, uint outcomeExpTerm)\r\n    {\r\n        // Naive calculation of this causes an overflow\r\n        // since anything above a bit over 133*ONE supplied to exp will explode\r\n        // as exp(133) just about fits into 192 bits of whole number data.\r\n\r\n        // The choice of this offset is subject to another limit:\r\n        // computing the inner sum successfully.\r\n        // Since the index is 8 bits, there has to be 8 bits of headroom for\r\n        // each summand, meaning q/b - offset <= exponential_limit,\r\n        // where that limit can be found with `mp.floor(mp.log((2**248 - 1) / ONE) * ONE)`\r\n        // That is what EXP_LIMIT is set to: it is about 127.5\r\n\r\n        // finally, if the distribution looks like [BIG, tiny, tiny...], using a\r\n        // BIG offset will cause the tiny quantities to go really negative\r\n        // causing the associated exponentials to vanish.\r\n\r\n        require(log2N >= 0 && int(funding) >= 0);\r\n        offset = Fixed192x64Math.max(otExpNums);\r\n        offset = offset.mul(log2N) / int(funding);\r\n        offset = offset.sub(EXP_LIMIT);\r\n        uint term;\r\n        for (uint8 i = 0; i < otExpNums.length; i++) {\r\n            term = Fixed192x64Math.pow2((otExpNums[i].mul(log2N) / int(funding)).sub(offset), estimationMode);\r\n            if (i == outcomeIndex)\r\n                outcomeExpTerm = term;\r\n            sum = sum.add(term);\r\n        }\r\n    }\r\n}\r\n",
  "sourcePath": "F:\\workhome\\blockchain\\DGOV\\contracts\\LMSRMarketMaker.sol",
  "compiler": {
    "name": "solc",
    "version": "0.5.17+commit.d19bba13.Emscripten.clang"
  },
  "schemaVersion": "3.4.3",
  "updatedAt": "2022-01-25T12:02:34.668Z",
  "devdoc": {
    "author": "Alan Lu - <alan.lu@gnosis.pm>",
    "methods": {
      "calcMarginalPrice(uint8)": {
        "details": "Returns marginal price of an outcome",
        "params": {
          "outcomeTokenIndex": "Index of outcome to determine marginal price of"
        },
        "return": "Marginal price of an outcome as a fixed point number"
      },
      "calcMarketFee(uint256)": {
        "details": "Calculates fee to be paid to market maker",
        "params": {
          "outcomeTokenCost": "Cost for buying outcome tokens"
        },
        "return": "Fee for trade"
      },
      "calcNetCost(int256[])": {
        "details": "Calculates the net cost for executing a given trade.",
        "params": {
          "outcomeTokenAmounts": "Amounts of outcome tokens to buy from the market. If an amount is negative, represents an amount to sell to the market."
        },
        "return": "Net cost of trade. If positive, represents amount of collateral which would be paid to the market for the trade. If negative, represents amount of collateral which would be received from the market for the trade."
      },
      "changeFunding(int256)": {
        "details": "Allows to fund the market with collateral tokens converting them into outcome tokens Note for the future: should combine splitPosition and mergePositions into one function, as code duplication causes things like this to happen."
      },
      "close()": {
        "details": "Allows market owner to close the markets by transferring all remaining outcome tokens to the owner"
      },
      "isOwner()": {
        "details": "Returns true if the caller is the current owner."
      },
      "owner()": {
        "details": "Returns the address of the current owner."
      },
      "renounceOwnership()": {
        "details": "Leaves the contract without owner. It will not be possible to call `onlyOwner` functions anymore. Can only be called by the current owner.     * > Note: Renouncing ownership will leave the contract without an owner, thereby removing any functionality that is only available to the owner."
      },
      "supportsInterface(bytes4)": {
        "details": "See `IERC165.supportsInterface`.     * Time complexity O(1), guaranteed to always use less than 30 000 gas."
      },
      "trade(int256[],int256)": {
        "details": "Allows to trade outcome tokens and collateral with the market maker",
        "params": {
          "collateralLimit": "If positive, this is the limit for the amount of collateral tokens which will be sent to the market to conduct the trade. If negative, this is the minimum amount of collateral tokens which will be received from the market for the trade. If zero, there is no limit.",
          "outcomeTokenAmounts": "Amounts of each atomic outcome token to buy or sell. If positive, will buy this amount of outcome token from the market. If negative, will sell this amount back to the market instead. The indices of this array range from 0 to product(all conditions' outcomeSlotCounts)-1. For example, with two conditions with three outcome slots each and one condition with two outcome slots, you will have 3*3*2=18 total atomic outcome tokens, and the indices will range from 0 to 17. The indices map to atomic outcome slots depending on the order of the conditionIds. Let's say the first condition has slots A, B, C the second has slots X, Y, and the third has slots I, J, K. We can associate each atomic outcome token with indices by this map: A&X&I == 0 B&X&I == 1 C&X&I == 2 A&Y&I == 3 B&Y&I == 4 C&Y&I == 5 A&X&J == 6 B&X&J == 7 C&X&J == 8 A&Y&J == 9 B&Y&J == 10 C&Y&J == 11 A&X&K == 12 B&X&K == 13 C&X&K == 14 A&Y&K == 15 B&Y&K == 16 C&Y&K == 17 This order is calculated via the generateAtomicPositionId function below: C&Y&I -> (2, 1, 0) -> 2 + 3 * (1 + 2 * (0 + 3 * (0 + 0)))"
        },
        "return": "If positive, the amount of collateral sent to the market. If negative, the amount of collateral received from the market. If zero, no collateral was sent or received."
      },
      "transferOwnership(address)": {
        "details": "Transfers ownership of the contract to a new account (`newOwner`). Can only be called by the current owner."
      },
      "withdrawFees()": {
        "details": "Allows market owner to withdraw fees generated by trades",
        "return": "Fee amount"
      }
    },
    "title": "LMSR market maker contract - Calculates share prices based on share distribution and initial funding"
  },
  "userdoc": {
    "methods": {}
  }
}